S01400004D6F64756C61726D5F4253502E737265638B
S315000000000004002071120000E91000006D120000CB
S315000000106D1200006D1200006D1200006D120000DE
S31500000020000000000000000000000000F5020000D3
S315000000306D120000000000000D03000075030000B3
S31500000040150A0000A50B0000D50C0000150A0000DB
S31500000050F10A000061060000D5050000F106000067
S309000000603907000056
S315000000640348044B834202D0034B03B1184770473D
S3150000007484A2000184A2000100000000064B074987
S31500000084C91A891048BF0131491003D0044B0BB17A
S3150000009401481847704700BF84A2000184A20001EA
S315000000A40000000010B5064C237843B9FFF7D8FFCB
S315000000B4044B13B10448AFF300800123237010BD31
S315000000C4200400200000000084A2000108B5054BAE
S315000000D41BB105490548AFF30080BDE80840FFF7AA
S315000000E4CDBF00BF000000002404002084A200014C
S315000000F408B5012002F008F9FBE700BF022800D08A
S3150000010470470249024800F01BBC00BFE42F000000
S31500000114A004002008B5012002F0F6F8FBE700BFB2
S3150000012410B5044600F038F82046BDE81040FFF745
S31500000134DFBF00BF30B501240D480E4A03680E4DDB
S3150000014485B01919CDE901250C4B01604FF4807275
S315000001540B490C48009401F093FE0B4B186008B150
S3150000016405B030BD014605B0BDE8304000F012B818
S31500000174B8090020F80C002040040020E02F0000FD
S31500000184602A0000250100003C040020704700BFDF
S31500000194FFF7FCBF00BE704738B5164C4FF0FF3171
S315000001A4206801F00DFC012803D000212068FFF728
S315000001B4F1FF114B1A7802B138BD01221A70FFF70C
S315000001C4E7FF0E4D2B68013B2B60002BF4D0002378
S315000001D420681A46194601F06BFA0128F2D000216C
S315000001E42068FFF7D7FF2B68013B2B60002BEED16D
S315000001F438BD00BFB0090020B4090020B8090020AA
S3150000020438B500230C4D0D4C01214FF480700C4A77
S315000002142B60237001F010FA0A4B186038B1FFF70F
S3150000022489FF00F037F801F039FF002038BD014698
S31500000234FFF7B0FFF3E700BFB8090020B4090020B8
S3150000024468090020B0090020802330B4034D044C13
S3150000025405600C60136030BC704700BF08090020BD
S3150000026408070020802330B4034D044C05600C605D
S31500000274136030BC704700BFA8060020A804002005
S3150000028410B50446FFF788FF2046BDE81040FFF787
S3150000029441BF00BF30B501240D480E4A03680E4D18
S315000002A485B01919CDE901250C4B01604FF4807214
S315000002B40B490C48009401F0E3FD0B4B186008B1A0
S315000002C405B030BD014605B0BDE83040FFF762BF5A
S315000002D4B8090020F8100020C009002020300000D2
S315000002E46C2A000085020000BC09002000BEFEE75F
S315000002F41EF0040F0CBFEFF30880EFF309800149E9
S3150000030408470000990300000F4B1968EFF30982B0
S315000003141EF0100F08BF22ED108A22E9F04FEFF30A
S315000003240B8342F8043D0A604FF0100080F31188F5
S31500000334BFF34F8FBFF36F8F02F026F84FF0000024
S3150000034480F3118800F002B8F80B00200748016812
S315000003540A6802CA81F30B88B2E8F04F1EF0100F48
S3150000036408BFB2EC108A82F309887047F80B0020A4
S3150000037410B5EFF31184102383F3118801F0F4FF11
S3150000038418B14FF08052024B5A6084F3118810BDA5
S3150000039400ED00E008B5836913F8023C022B02D095
S315000003A4032B04D808BDBDE80840FFF7CFBF4FF4C0
S315000003B47E71024B024A034800F046FE782A00008A
S315000003C4603000008C2A000070B44FF080756FF026
S315000003D40204094E283122F0010240F80C6C40F860
S315000003E4045C40F8244C40F8203C40F8082C70BCCF
S315000003F440F8481D704700BFF102000008B5EFF34E
S315000004041181102383F311880A4A13680133012BDF
S31500000414136000D008BD084A084B11605B68C3F33B
S315000004240803002BF6D040F2A441054B054A0648C2
S3150000043400F00AFE240A0020200A002000ED00E055
S31500000444B42A00004C3000008C2A000008B5094A82
S3150000045413683BB1013B13601BB9074B1B6883F35D
S31500000464118808BD40F2AD41044B054A054800F029
S31500000474EBFD00BF240A0020200A0020FC2A00000D
S31500000484383000008C2A000080B3194B9A8990B248
S31500000494120409D4BFF34F8F30BFBFF36F8F62B618
S315000004A4BFF36F8F72B670474AF202514FF0000CD9
S315000004B4B3F8FE23A3F8FE1392B242F42542A3F83E
S315000004C40CC0A3F8FE23BFF34F8F30BFBFF36F8F6B
S315000004D462B6BFF36F8F72B6B3F8FE23A3F8FE13AA
S315000004E492B242F425429881A3F8FE23704700BFD6
S315000004F400E0014008B572B601F01EFE0120FFF7C8
S31500000504C3FF62B6BDE8084001F01EBE0D4B0E4A9D
S315000005141B68A2FB03239B09013BB3F1807F00D335
S3150000052470474FF0E0224FF0F00C0020072110B482
S31500000534064C536184F823C0906111615DF8044B45
S31500000544704700BFA40A0020D34D621000ED00E0FE
S31500000554F02208B50B4B83F82220FFF7D7FF0A4A8F
S31500000564536B43F04043536362B6BFF36F8FEFF3AD
S31500000574148C2CF0040C8CF31488BFF36F8F02DFF9
S3150000058400BEFDE700ED00E000EF00E0F0B5846A90
S3150000059485B005460F4694466E46B4B194E80F00FE
S315000005A486E80F00EB6920461B78A760236084F871
S315000005B404C0EB6AE3606B6A9847AC6A1CB196E8C0
S315000005C40F0084E80F0005B0F0BD3446EAE700BF2B
S315000005D4EFF30383103B1F4A5BB203F1C00152F8E9
S315000005E4210020F4803042F8210052F821201A4AD2
S315000005F452F82300C3691B6983B1036903B17047C9
S31500000604026A0021937803F07F0343F00403937096
S31500000614436AC160C3B18022FFF7B8BF0369026AA7
S31500000624002BEED08378C16803F00303022B0CD0B1
S315000006340B78D3708278D0E9031302F003029B1A75
S315000006441144C0E90313D9E770470B8843F47E438A
S31500000654D381EFE700600040740A002010B582B031
S31500000664EFF30383103B1F4A5BB203F1C00152F858
S31500000674210020F4803042F8210052F821201A4A41
S3150000068452F82340A27802F00303022B236A0CBF1C
S31500000694198A5979A3690CBFC1F30801C9B201913A
S315000006A443B9636AB3B10422204602B0BDE81040E0
S315000006B4FFF76CBF02F0030201A9606902F0C0F9FA
S315000006C4D4E90521A37803F003031A44C91AC4E93B
S315000006D4052109B102B010BD636A002BFAD00122CC
S315000006E4E2E700BF00600040740A002010B5EFF393
S315000006F403830E4A103B5CB252F82400026A9378D4
S3150000070403F07B039370436A1BB102220021FFF7B7
S315000007143DFF074A04F1C00352F8231021F4803147
S3150000072442F8231052F8233010BD00BF740A00208B
S315000007340060004010B5EFF303831A4A103B5CB225
S3150000074452F82400837803F00303022B036A0CBFD8
S31500000754198A597993F804C00CBFC1F30801C9B2C8
S315000007641CF0100F0CF0380206D093F81CC01CF0D5
S31500000774010F08BF42F0400293F804C00CF0C70C06
S3150000078483F804C0436A0BB1FFF700FF064A04F17D
S31500000794C00352F8231021F4803142F8231052F892
S315000007A4233010BD740A0020006000402DE9F84F84
S315000007B40388DBB182464FF0000B4FF00109DFF8E6
S315000007C4D0800024304D4FEACB07DAF8043035F8F0
S315000007D4022BD919898891420AD00134032CF4D109
S315000007E4BAF800300BF1010B5B45EAD8BDE8F88F87
S315000007F4DB5909FA04F603F0B853B3F1807FF6B275
S3150000080498F8BB3413D0334231D1204A04F1200680
S3150000081412F81630DB09E0D012F81630012123F065
S315000008248003C82002F8163000F016FCD5E73342E0
S3150000083411D0164A04F1200112F81130DB09CCD18B
S3150000084412F81130C82043F0800302F81130012158
S3150000085400F002FCC1E7012000F0DCFC98F8BB3490
S315000008640120334388F8BB3400F0A4FCE1E70120FF
S3150000087400F0D0FC98F8BB34012023EA060388F87C
S31500000884BB3400F097FCC0E7743000000030084029
S3150000089400E00140F8B50646FFF788FFEFF3108243
S315000008A4012383F31088234F3B681BB92249CB707D
S315000008B44023CB703B6801333B6082F31088338856
S315000008C423B300211D4D08E01B01134445F82340C2
S315000008D4328801318BB29A4218D9736853F8314081
S315000008E403EBC1029288E0034FEA1223D2B2EBD59E
S315000008F402EB031055F820E024F4803C2EF4803EED
S3150000090445F820E01B0145F820C0DEE7EFF310822E
S31500000914012383F310883B6813B13B68013B3B60BA
S315000009243B681BB980200449CB70C87082F31088D9
S31500000934F8BD00BF700A0020000D084000080840FA
S3150000094408B5034B03600846FFF7A4FF002008BD63
S3150000095454524F501F2930B534D801F1400E00EBE4
S31500000964CE1EDEF800301A4DC3F380745471DEF8DF
S31500000974084004F00704946023F06044DB0F14601D
S315000009841371DEF804301B0FEC5C0EF10C0394714A
S3150000099444B10C34A6440B3213F801CB734502F868
S315000009A401CFF9D11F2905D801238B40DB43C0F8B9
S315000009B4B03030BDFF2327298CBF6831203140F881
S315000009C4213030BD01F1A00E00EBCE1EC9E700BFF9
S315000009D47C30000070B5456904460E4698B0A5B152
S315000009E460222946684602F02BF8602231462846E2
S315000009F402F026F8284623699847606918B16022F0
S31500000A04694602F01DF818B070BD0D46F2E700BF46
S31500000A1430B599B0EFF30383103B5BB2032B2DD0B3
S31500000A241C462F4B60220021684653F8245001F0DF
S31500000A34FFFF4FF480730020ADF804306B682A681A
S31500000A441B68694602EB0312D26892B202922A68C4
S31500000A5402EB0312D0600093AB6928460493FFF7B8
S31500000A64B9FF204A04F1C00352F8231021F480315F
S31500000A7442F8231052F8233019B030BD1A4B6022C5
S31500000A84002168461C6801F0D3FF4FF4805300210F
S31500000A94ADF804302368D3F890301A0C1B0403EB2A
S31500000AA40273029322689B03C2F8901010D5236840
S31500000AB4D3F8A83293FAA3F3B3FA83F30393226821
S31500000AC402EB8303D3F8E02022F00402C3F8E0200B
S31500000AD4A3692046694604930324FFF77BFFC0E716
S31500000AE4740A002000600040280A00202DE9F04323
S31500000AF4284D99B0D5F8AC4294FAA4F4002C38D019
S31500000B04B4FA84F4072C34DC4FF48063012704F12F
S31500000B142008CDF80C80ADF80430D5F8A032A740F3
S31500000B243B421BD105EBC41606F5C046DFF86C90B4
S31500000B34083633684146C3F30123164805AA0093D1
S31500000B44FFF708FF009B694659F82300836904935D
S31500000B54FFF740FFD5F8A0323B42EAD0A40004F1E7
S31500000B64804404F53024D4F8E03023F00803C4F8B4
S31500000B74E030084BD3F8AC3243B9074AD2F8101325
S31500000B8463F31041C2F81013D2F8103319B0BDE85C
S31500000B94F08300BF00000B4000600040280A0020DC
S31500000BA42DE9F04399B0EFF30384474B103C64B24C
S31500000BB453F82490D9F80430D9F818201F681D6911
S31500000BC400970492D9F8001001F5985818F80730E0
S31500000BD4B844002B65D007262CE04FF4006003F5DB
S31500000BE4617301EB8302ADF80400136893FAA3F36F
S31500000BF41BB1B3FA83F3072B07DD536893FAA3F308
S31500000C04002B5ED0B3FA83F32033D9F8001003EB3C
S31500000C148712114491F8D02722F0060281F8D027D2
S31500000C24694648460393FFF7D5FE98F80030C3B3E8
S31500000C34D9F8001098F800207B00D0B2D20727F02C
S31500000C440047CAD4020725D5EA690C3352F8233083
S31500000C54D1F8B42213F4805F0CBF4FF400534FF461
S31500000C64006307EB470106FA01F11140ADF80430C1
S31500000C7491FAA1F111B3B1FA81F101F12803D9F87E
S31500000C84002002EB8102D2F8E01121F01001C2F833
S31500000C94E011C5E703F56B734FF4007001EB8302B3
S31500000CA4A1E70A4BC03453F8242022F4803243F8D7
S31500000CB4242053F8243019B0BDE8F08348232021BA
S31500000CC4DDE74023A1E700BF740A0020006000406E
S31500000CD42DE9F04399B0EFF30388304BA8F11008DF
S31500000CE44FFA88F853F82840D4E90023D2F8B062C2
S31500000CF41A6806F03F0696FAA6F6002E49D0B6FA0A
S31500000D0486F3012513F01C0F03F108011E4618BFD4
S31500000D1403F0030305FA01F50CBF283328330393C4
S31500000D244FF480630092ADF804302068D0F8A03206
S31500000D342B4214D1DFF86C9006F12807394605AA30
S31500000D44FFF708FE009B694659F82300836904935C
S31500000D54FFF740FE2068D0F8A0322B42EED000EB1D
S31500000D648600D0F8E03123F00803C0F8E0312368A8
S31500000D74D3F8B03253B90A4A08F1C00852F8281019
S31500000D8463F3104142F8281052F8283019B0BDE830
S31500000D94F0834FF480752823C1E700BF740A00204E
S31500000DA400600040280A0020064B074993F82600F5
S31500000DB41A6A51F82030C2F302620449D3400B6028
S31500000DC4704700BF00E0014000040020A40A002090
S31500000DD4704700BFF8B54AF2035001236249634ADB
S31500000DE4A1F8FE03A2F80431B2F804319BB2002B39
S31500000DF4FAD101204FF400454FF0090C5C4CDFF8A2
S31500000E048CE15C4EC4F804E0DFF884E15A4FC4F880
S31500000E140CE0A2F80001594A5349B06030602760DB
S31500000E24A5602561626191F82620086A54F822209B
S31500000E34534EC0F30260C240326081F8133481F825
S31500000E44A2C091F8803423B991F88134990700F04F
S31500000E548580454D95F88034002B74D00022424B92
S31500000E6483F8812483F8802400233F4981F83230B3
S31500000E7491F83C301A07FBD543F2021000233A4A94
S31500000E84088581F82A3092F83C309B06FBD503206E
S31500000E94052336494FF0F10C81F81C0139493A48CB
S31500000EA4116282F8263092F82630156A54F8231017
S31500000EB4C5F302640123E140F024316080F80CC0DC
S31500000EC40372047382F8303082F8523092F8763026
S31500000ED4254943F0400382F8763091F87630DB09F1
S31500000EE4FBD0C523032281F86E2081F8763091F871
S31500000EF476301D4803F0BF0381F8763090F87630DB
S31500000F04DB09FBD190F87830174A43F0400380F8A8
S31500000F14783092F87830DB09FBD0C423002082F8BD
S31500000F24700082F8783092F878300F4903F0BF03E6
S31500000F3482F8783091F87830DB09FBD14FF42543F9
S31500000F44A1F8FE33F8BD0121C82085F8801400F00D
S31500000F5483F895F88034012BFBD17FE74FF47A7040
S31500000F64FFF736FF80E700BF00E0014000C0014004
S31500000F740004002000700040002D310100C2EB0B7C
S31500000F84A40A0020211201200020004000127A0049
S31500000F9400366E0138B50025284C0121C82084F896
S31500000FA4285000F059F884F8245094F82430002B83
S31500000FB4FBD194F82430214943F0020384F8243009
S31500000FC491F82430C3F340009B07F9D41B4A81F8F7
S31500000FD4220092F8223003F0FF00002BF9D192F898
S31500000FE44030164960F3C71382F8403091F8403018
S31500000FF4DB09FBD191F84200104A63F3C71081F86C
S31500001004420092F84230DB09FBD192F844000B49C6
S3150000101463F3C71082F8440091F84430C3F3C01454
S31500001024DB09F9D1012000F0F5F8054B012083F81E
S31500001034BB44BDE8384000F0BDB800BF00300840EE
S3150000104400E00140704700BF00BEFEE7A0F10100CA
S315000010540028FBD1704700BF1F4B204A1B6800FBCA
S3150000106401F1934213D302F1854202F5071203F507
S31500001074741302F6834203F6FF03A2FB03231B0D3C
S31500001084A3FB01314FF0FF30F9B1FFF7DFBF4FF497
S315000010947A7210B4A1FB02C41148B0FBF3F34FF00B
S315000010A4FF3044B9BCFBF3FC4FEA9C0088B15DF801
S315000010B4044BFFF7CBBF9B00B1FBF3F1A1FB02127C
S315000010C4002AF4D1084620B1F1E71846002BDCD1FA
S315000010D470475DF8044B7047A40A002000127A009A
S315000010E400CA9A3B70B500240B4B0C4EB3F8202172
S315000010F4B3F84051ADB2154025FA04F3DB0704D525
S3150000110456F82430E0B203B198470134102CF3D1D9
S31500001114014BA3F8305170BD00600040300A002036
S3150000112430B5032085B000F075F800256FF0FF0197
S315000011344FF0FF301B4B1C4C996422462B464FF054
S31500001144010ECDE90100039032F8021F0EFA03FCEA
S31500001154013311B1012520EA0C00092BF4D1F5B1B4
S315000011640190124B0F4A1067C3F8800202990320BC
S315000011745167C3F8841203999167C3F8881200F083
S3150000118419F800230A4834F8022F03F1C001013389
S315000011940AB140F82120092BF5D105B030BD4FF036
S315000011A4FF30DEE7008000402230000000E100E06E
S315000011B400600040EFF31081012383F31088124B83
S315000011C433F8102092B22AB133F81020013A92B2C1
S315000011D423F8102033F810309BB293B910B40B4A9D
S315000011E40B4CB2F8FE3334F810009BB243F425439B
S315000011F423EA0003A2F8FE3381F310885DF8044B5A
S31500001204704781F310887047980A002000E0014077
S315000012146431000030B4EFF31081012383F31088A6
S315000012240E4A32F810309BB26BB90D4C0D4DB4F822
S31500001234FE3335F810C09BB243EA0C0343F425434E
S315000012449BB2A4F8FE3332F8103001339BB222F875
S31500001254103081F3108830BC704700BF980A002014
S3150000126400E001406431000000BE704708B500F09C
S3150000127435F8FEF7C5FFFEE7F8B5174F05463E6895
S31500001284A6B17C6806EB460604EB860602E00C343F
S31500001294B4420BD0637AAB42F9D1D4E900020021FF
S315000012A4121A0C3401F0C4FBB442F3D1BE6896B1F1
S315000012B4FC6804EB061602E01034A6420BD0637BEE
S315000012C4AB42F9D1D4E90002A168121A103401F034
S315000012D4B7FBA642F3D1F8BD8C3000004FF4700181
S315000012E4274B284A70B50020C3F888109A60FEF789
S315000012F405FFFFF76FFD0120FEF700FF224B83F386
S315000013040A880020FFF7B8FFFFF74EFDFFF742FEFD
S315000013140320FFF77FFF00234FF6FF701B4903F1FD
S31500001324080201330C2B21F81200F8D10024032003
S31500001334FFF740FF0320FFF76DFF154B03205C60AA
S315000013449C60DC601C61FFF735FF0220FEF7D6FEC9
S315000013540120FFF791FF0F4D0F4B5B1BA3424FEA92
S31500001364A30605DD55F8043B01349847A642F9DC8B
S31500001374FFF7D6FEBDE870400020FFF763BE00BF4E
S3150000138400ED00E00000000000000020000D084011
S3150000139400000E4090330000943300004FF0FF31FC
S315000013A4002200F10803C0E90131C0E903330260F9
S315000013B4704700BF00230361704700BF30B40D6857
S315000013C46B1C10D000F108031C465B681A68AA421D
S315000013D4FAD94B6099608C6061600861036830BC1F
S315000013E401330360704704696368F2E70369D0E96F
S315000013F401128A60416851605A68824204BF826859
S315000014045A6000220261186801381860704700BFEC
S3150000141470B51646026C0446856B0AB386B94068F5
S3150000142401F00EFB6368216CA2680B44934263606F
S3150000143405F1010515D32368A5636360002070BD1B
S31500001444C06801F0FDFA226CE36851429B1A2268D7
S31500001454E360934202D2A3680B44E360022E03D0F6
S315000014640135A563002070BD012D38BF0125F8E7BD
S3150000147470B50546FEF7C2FF95F845305CB2002C00
S3150000148414DD05F1240603E0631EDAB25CB26AB128
S315000014946B6A5BB1304601F00DF80028F4D001F018
S315000014A4D7F8631EDAB25CB2002AF1D1FF2385F8BD
S315000014B44530FEF7CBFFFEF7A1FF95F844305CB24A
S315000014C4002C14DD05F1100603E0631EDAB25CB2EB
S315000014D46AB12B695BB1304600F0ECFF0028F4D00A
S315000014E401F0B6F8631EDAB25CB2002AF1D1FF232A
S315000014F485F84430BDE87040FEF7A8BF70B50028F3
S3150000150448D0C56B0446002D3DD0026CA2FB0525D0
S31500001514002D38D10E46FEF771FFD4E90F30FF21B6
S3150000152400FB03F32268181A626013440244A5639D
S31500001534C4E9023284F8441084F84510BEB923691C
S315000015441BB9FEF783FF012070BD04F1100000F003
S31500001554B1FF0028F5D04FF08052124B5A60BFF30A
S315000015644F8FBFF36F8FFEF771FF012070BD04F13B
S315000015741000FFF713FF04F12400FFF70FFFFEF737
S3150000158465FF012070BD4FF4B671074B074A084842
S31500001594FFF75AFD40F23711064B044A0448FFF799
S315000015A453FD00BF00ED00E04C2B0000FC310000B1
S315000015B4182B0000442B000030B583B01BB3D8B100
S315000015C40D461C4682B1B9B148230193019B482BB1
S315000015D420D1E0630121204622602564019BFFF7A8
S315000015E48DFF204603B030BD31B948230193019BDA
S315000015F4482B0FD12246ECE74FF4D871094B0A4A1F
S315000016040A48FFF721FD4FF4C271094B064A074801
S31500001614FFF71AFD4FF4CB71064B034A0348FFF755
S3150000162413FD00BF9C2B0000E0310000182B0000C6
S31500001634702B0000802B000030B583B0B0B1884217
S315000016440D4613D31446FAB148230193019B482B44
S3150000165413D1002322600121D06320462364019A1A
S31500001664FFF74CFF2046A56303B030BD4FF45E710F
S31500001674094B0A4A0A48FFF7E7FC4FF4CB71094BBA
S31500001684094A0748FFF7E0FC4FF4C271074B064AC4
S315000016940348FFF7D9FC00BFA82B0000BC310000AB
S315000016A4182B0000802B0000E0310000702B000096
S315000016B42DE9F04184B00192002800F0AF80044681
S315000016C40F461E46002900F08B80022E03D1E36BE1
S315000016D4012B40F09C8000F0C1FF002867D0FEF784
S315000016E48DFEA26BE36B9A4253D3022E51D0002097
S315000016F4DFF8448105460DE0FEF7A8FE2046FFF715
S31500001704B7FE00F021FDFEF779FEA26BE36B012024
S315000017149A423ED3019B002B6DD0B0B3FEF796FEE2
S3150000172400F00AFDFEF76AFE94F84430FF2B08BF6A
S3150000173484F8445094F84530FF2B08BF84F845508C
S31500001744FEF784FE02A801A900F03AFF002858D14A
S31500001754FEF754FEA26BE36B9A42CDD1FEF776FEFA
S31500001764019904F1100000F055FE2046FFF780FEB3
S3150000177400F0EAFC0028C6D14FF08053C8F80430C4
S31500001784BFF34F8FBFF36F8FBDE702A800F00CFFC6
S31500001794C4E7324639462046FFF73AFE636A83B900
S315000017A4A8B9FEF753FE012004B0BDE8F081019B01
S315000017B4002B94D040F2BB311C4B1D4A1D48FFF749
S315000017C443FC04F1240000F075FE0028E9D04FF034
S315000017D48052194B5A60BFF34F8FBFF36F8FE0E708
S315000017E4036C002B3FF471AF40F2B731134B104A30
S315000017F41048FFF729FCFEF729FE002004B0BDE8D7
S31500001804F0812046FFF734FE00F09EFCF5E74FF426
S315000018146E710B4B064A0748FFF716FC40F2B631C9
S31500001824084B034A0348FFF70FFC00BF582C00007F
S31500001834A8310000182B000000ED00E0B02B0000DA
S31500001844082C0000442B0000F0B585B00192002856
S3150000185400F0A38004460E4600296ED000F0FEFE7A
S31500001864002857D0FEF7CAFDA56B002D6FD1019B4A
S31500001874002B35D002A800F097FE2F46FEF7E6FDB2
S3150000188400F05AFCFEF7BAFD94F84430FF2B08BF6B
S3150000189484F8447094F84530FF2B08BF84F84570EB
S315000018A4FEF7D4FD01A902A800F08AFEE8B9FEF706
S315000018B4A5FDA36B33BBFEF7C9FD019904F1240012
S315000018C400F0A8FD2046FFF7D3FD00F03DFC58B319
S315000018D4FEF794FDA56B002D39D1019B002BCDD1CC
S315000018E4FEF7B4FD002005B0F0BD2046FFF7C0FDAD
S315000018F400F02AFCFEF782FDA36B002BF0D0FEF766
S31500001904A5FDE5E7FEF7A2FD2046FFF7B1FD00F0D1
S315000019141BFCDDE7019B002BA4D040F2F251224BC5
S31500001924224A2348FFF790FB4FF08052214B5A601E
S31500001934BFF34F8FBFF36F8FCAE7036C002B8DD0B5
S3150000194440F2ED511C4B194A1948FFF77DFB226CF6
S315000019545AB1E168A36811449942E16028BF21683D
S31500001964304628BFE16001F06BF82369013DA563A9
S3150000197423B9FEF76BFD012005B0F0BD04F110009C
S3150000198400F098FD0028F4D04FF08052094B5A60BD
S31500001994BFF34F8FBFF36F8FEBE740F2E951074B6D
S315000019A4024A0348FFF750FB582C00009831000008
S315000019B4182B000000ED00E0382D00002C2D00004F
S315000019C470B584B00191002800F09180036C044640
S315000019D4002B40F0858000F041FE002855D0FEF72C
S315000019E40DFDA56B002D63D1019BA3B302A800F0E6
S315000019F4DBFD2E46FEF72AFD00F09EFBFEF7FEFCFD
S31500001A0494F84430FF2B08BF84F8446094F84530BA
S31500001A14FF2B08BF84F84560FEF718FD01A902A84C
S31500001A2400F0CEFDE0B9FEF7E9FCA36B2BBBFEF795
S31500001A340DFD019904F1240000F0ECFC2046FFF7AB
S31500001A4417FD00F081FB50B3FEF7D8FCA56B7DBBF8
S31500001A54019B002BCED1FEF7F9FC002004B070BD2B
S31500001A642046FFF705FD00F06FFBFEF7C7FCA36BEE
S31500001A74002BF0D0FEF7EAFCE6E7FEF7E7FC20468B
S31500001A84FFF7F6FC00F060FBDEE7019B002BA6D017
S31500001A9440F28B61194B1A4A1A48FFF7D5FA4FF0F0
S31500001AA48052194B5A60BFF34F8FBFF36F8FCBE74A
S31500001AB42369013DA56323B9FEF7C8FC012004B0E0
S31500001AC470BD04F1100000F0F5FC0028F4D04FF0CE
S31500001AD480520D4B5A60BFF34F8FBFF36F8FEBE706
S31500001AE440F28661094B064A0648FFF7ADFA40F212
S31500001AF48261074B024A0348FFF7A6FA582C0000F6
S31500001B0484310000182B000000ED00E0AC2C00002E
S31500001B142C2D000070B500B3D9B10024124D234614
S31500001B242A4604E001330A2B02F108020ED0566855
S31500001B3486420FD0002CF5D155F833600133002EC0
S31500001B4408BF14460A2B02F10802F0D10CB1C4E90D
S31500001B54001070BD05EBC304F9E740F6C931034B29
S31500001B64034A0448FFF770FAA80A0020102B000065
S31500001B7470310000182B000070B504460E46154659
S31500001B84FEF73CFC94F84430FF2B04BF002384F892
S31500001B94443094F84530FF2B04BF002384F84530C5
S31500001BA4FEF754FCA36B23B12046BDE87040FFF753
S31500001BB45FBC04F124002A46314600F049FC204665
S31500001BC4BDE87040FFF754BC2DE9F8430446264BA4
S31500001BD42648274A274DD0F800901768D3F8008086
S31500001BE428680E460430FFF701FC631C17D02B68E7
S31500001BF419EB04045C600BD2296838460431FFF7FC
S31500001C04DDFB1D4B1A68A24200D91C60BDE8F883AF
S31500001C1429684046BDE8F8430431FFF7CFBB76B9DF
S31500001C242B6809F1FF325A60B9F1000FF0D1296827
S31500001C3438460431FFF7C2FB0F4B1B68E6E70F4B30
S31500001C4429685A681C688A602E68013428682968DD
S31500001C541C602D68946804300431F46060609160FF
S31500001C646B61BDE8F88300BF640B00201C0B0020E9
S31500001C74680B0020F80B0020000B0020240B00202A
S31500001C8480B54FF08058124C124E134D134FDFF8A7
S31500001C9450900EE0FEF7B2FBF368D8680430FFF705
S31500001CA4A5FB2B68013B2B602368013B2360FEF7F1
S31500001CB4CDFB2368002BEDD13B68012B05D9C9F870
S31500001CC40480BFF34F8FBFF36F8FFEF713FCF0E76B
S31500001CD4380B00203C0B0020200B0020940B002026
S31500001CE400ED00E02DE9F84F594B1C6801341C60E7
S31500001CF4002C00F08280DFF87C81D8F800309C420A
S31500001D0473D3544D2B681868002800F08D8000208A
S31500001D14DFF864B10646504ADFF860C15CE0D96872
S31500001D249F68D3F81490B9609F6803F1040E4F605E
S31500001D34D9F80410714504BFD968C9F804105E6166
S31500001D44D9F800100139C9F80010D3F82890B9F170
S31500001D54000F13D0D3E90771B960DF6903F1180ADC
S31500001D644F60D9F80410514504BF196AC9F8041024
S31500001D749E62D9F800100139C9F80010D96ADBF857
S31500001D840090494588BFCBF8001001EB810102EBB6
S31500001D94810149689960D1F80890C3F80C90C9F894
S31500001DA404E0C1F808E0D96ADCF8009001EB810E82
S31500001DB402EB8E01596152F82E10D5F800A00131BC
S31500001DC442F82E10D3F82CE0D9F82C10DAF80030AB
S31500001DD48E4588BF01203BB32B68DB68DB685968F6
S31500001DE48C429CD2C8F8001000E000201B4B1B68F4
S31500001DF4002B18BF0120BDE8F88F164B1A6812682D
S31500001E04FAB9174A186811681960164910600A6801
S31500001E1401320A601A6812685AB94FF0FF33DFF8C4
S31500001E245480C8F8003068E74FF0FF33C8F8003034
S31500001E34DCE71B68DFF83C80DB681B68C8F8003009
S31500001E445BE741F25F21084B084A0948FFF7FCF8B3
S31500001E541C0B0020680B0020940B00200C0B0020A8
S31500001E64640B0020080B0020C82D000090320000EF
S31500001E749C2D0000000B0020180B0020F80B0020FE
S31500001E842DE9F04782B00C9CDDE90A6ABAF1000F2D
S31500001E9400F0D280002C00F0C180984660230193A4
S31500001EA41546019A9A4240F0B280894605F180456A
S31500001EB4013D0746002120460AEB8505019B25F0D6
S31500001EC4070500F0B5FDC4F830A0B9F1000F0FD036
S31500001ED409F1FF3C09F10F0304F1330E1CF9011F4C
S31500001EE40EF8011F09B19C45F8D1002384F843304C
S31500001EF4042E00F29A8004F104094846E662FFF7CC
S31500001F0459FAC6F1050604F11800FFF753FA4346D9
S31500001F143A462846216BA66124616462FEF754FAA8
S31500001F242060FEF76BFA484A484D13680133136084
S31500001F342B68002B3FD0464FE36A3A68002A34D018
S31500001F44444E454945480A6801320A6002689A4285
S31500001F5438BF036003EB830306EB83035B68A3606C
S31500001F649A68E260C2F80490C3F80890E36A03EB47
S31500001F74830306EB830262619B00F2580132F2503E
S31500001F84FEF764FA3B6863B12A68E36AD26A9A4246
S31500001F9407D24FF08052324B5A60BFF34F8FBFF3D4
S31500001FA46F8F204602B0BDE8F0872A68D26A934252
S31500001FB428BF2C60C4E72C601368012B03D0E36AA6
S31500001FC4244E234FBDE7234E374606F164083846B0
S31500001FD41437FFF7E3F9B845F9D1DFF8BC80214F90
S31500001FE44046FFF7DBF93846FFF7D8F91E48FFF7F6
S31500001FF4D5F91E48FFF7D2F91D48FFF7CFF91D4B57
S31500002004C3F800801C4B1F60E36A114F99E740F246
S31500002014FA411A4B1A4A1B48FFF716F840F2F241E6
S31500002024194B174A1748FFF70FF840F26471174B1C
S31500002034174A1448FFF708F840F2F141154B104AC5
S315000020441048FFF701F800BF200B0020F80B002012
S31500002054140B0020940B0020040B0020180B002006
S3150000206400ED00E06C0B0020500B00203C0B002020
S31500002074240B0020680B0020640B00207C2E00003B
S31500002084EC3200009C2D0000602E0000982E00000B
S31500002094D4320000402E0000800B002030B500240E
S315000020A48DB01B4B07AA06A905A80893CDE90544DC
S315000020B48DF82440FEF7C8F8DDE905122346CDE97C
S315000020C401211448079A009408A9FFF7D9FE124B78
S315000020D4186018B9114B1B680DB030BD00F072FCC6
S315000020E4012808D00130F5D140F6A9610C4B0D4A00
S315000020F40D48FEF7A9FF80F310884FF0FF350B4912
S315000021040B4A0C4B0D6010601C60FEF721FAE1E7E8
S3150000211449444C45851C0000FC0A0020003300009D
S31500002124AC2E0000B43200009C2D0000000B0020F1
S31500002134140B00201C0B0020024A136801331360A1
S31500002144704700BFF80A00202DE9F047604CFEF7FF
S3150000215455F92368002B00F0B3802368013B236004
S315000021642068002840F09E805A4B1B68002B00F024
S315000021749980594D2B68002B00F09F804FF0010C7D
S31500002184564E574ADFF86CA1DFF87881EB68DB68B6
S31500002194D3F828E0D3E90771B960DF6903F11809B8
S315000021A44F60DEF80410494504BF196ACEF80410DE
S315000021B49862DEF800100139CEF80010D3F814E066
S315000021C4D3E90271B9609F6803F104094F60DEF830
S315000021D40410494504BFD968CEF804105861DEF8E6
S315000021E400100139CEF80010D96AD6F800E071451E
S315000021F488BF316001EB810102EB81014968996076
S31500002204D1F808E0C3F80CE0CEF80490C1F80890C1
S31500002214D96A01EB810E02EB8E01596152F82E1038
S31500002224013142F82E10DAF800E0D96ADEF82C30D3
S3150000223499422B6888BFC8F800C0002BA6D1294B49
S315000022441A681268002A33D01A68274BD2681268B3
S315000022541A60264E356895B1012706E0FFF742FD60
S3150000226408B1C8F80070013D08D02368002BF5D0EA
S315000022743368013D03F101033360F6D13560D8F8C4
S3150000228400307BB14FF08052194B1A4909685A60E5
S31500002294BFF34F8FBFF36F8F0124FEF7D7F82046A5
S315000022A4BDE8F0870024FEF7D1F82046BDE8F087A4
S315000022B44FF0FF320C4B1A60CBE7DFF84880C8E7D3
S315000022C440F68B710C4B0D4A0D48FEF7BDFE00BF60
S315000022D4F80A0020200B0020500B0020180B0020C9
S315000022E4940B0020680B0020000B0020100B00202C
S315000022F400ED00E0F80B0020C02E0000A432000020
S315000023049C2D00000C0B002008B560B10E4B1A681A
S3150000231401321A601B68012B0ED10021FFF754FC11
S31500002324FFF712FF38B94FF08052084B5A60BFF3DB
S315000023344F8FBFF36F8F08BD40F68E11044B054ACD
S315000023440548FEF781FE00BFF80A002000ED00E014
S31500002354082F0000C83200009C2D0000014B1868AD
S31500002364704700BF1C0B0020054B1B680BB9FFF719
S31500002374B9BC044A0020136801331360704700BFD8
S31500002384F80A0020100B002038B51A4B1B681BB145
S315000023940122194B1A6038BD174A184C136023687A
S315000023A4174803EB830250F82250990000EB82028F
S315000023B43DB9C3B152F8141C013B09B9143AF8E704
S315000023C49900CA1800EB820108464A680830526828
S315000023D482424A6004BFCA684A60D26809490A60F0
S315000023E423600B6838BD41F2FA31074B074A0848A7
S315000023F4FEF72AFEF80A00200C0B0020180B00201A
S31500002404940B0020F80B0020242F00007C320000DF
S315000024149C2D000010B558B10C46094B19681831AB
S31500002424FEF7CCFF2046BDE810400121FFF7CCBBE8
S315000024344FF4A451034B044A0448FEF705FE00BFBB
S31500002444F80B0020342F0000643200009C2D00009D
S31500002454F8B50346F8B108461146124C5A68256881
S31500002464D4F800C0EA6126682568276805F11804CF
S3150000247495681836CCF820506E609460BB621A6872
S31500002484002902F101021A6018BF4FF0FF30BDE8BF
S31500002494F840FFF799BB41F2BE41034B034A044897
S315000024A4FEF7D2FDF80B0020342F00004432000062
S315000024B49C2D000038B5C368DB68002B5BD0D3E9DC
S315000024C407019A6A8160DC6903F118004C6051685F
S315000024D42C4C814208BF196A246808BF5160002148
S315000024E49962116801391160ACB1274A5468DC61FC
S315000024F4A168196248601168A06001319A6211608E
S315000025042249DA6A0B68DB6A9A4232D90123204AE5
S315000025141846136038BD5A69D3E9020181609C6884
S31500002524181D4C6051681B4C814208BFD968256848
S3150000253408BF516000215961116801391160DA6AD6
S315000025441549AA4288BF226002EB820201EB82028D
S3150000255452689A609468DC6060609060DA6A02EBA4
S31500002564820201EB8200586192008858013088503B
S31500002574C6E7002038BD41F2F541084B084A094830
S31500002584FEF762FDF80A0020500B0020F80B00202D
S315000025940C0B0020180B0020940B0020402F000089
S315000025A4283200009C2D0000034A044B12681B6865
S315000025B4C0E90023704700BF080B00201C0B002055
S315000025C4F8B550B30D4679B30446FDF717FF2B68EB
S315000025D4194A581C11681BD0D4E90060DFF86CC096
S315000025E4DCF80070BE4208D0884206D800230124D5
S315000025F42B60FDF72BFF2046F8BD0F1ABB42F5D919
S315000026045B1ADCF80010126803442B60C4E900125C
S315000026140024FDF71BFF2046F8BD41F2A551074BE8
S31500002624074A0848FEF710FD41F2A651064B044A34
S315000026340448FEF709FD00BF1C0B0020502F0000C4
S31500002644103200009C2D00005C2F0000080B0020B7
S315000026540122014B1A6070470C0B0020054B1B68C6
S3150000266433B1054B1868B0FA80F040094000704752
S3150000267401207047140B0020F80A0020F0B5124C14
S3150000268483B0FDF7BBFE256825B103B0BDE8F04075
S31500002694FDF7DCBE0D4E0E4F3046FEF77FFE384684
S315000026A4FEF77CFE0B490C4B00950A201F600E605A
S315000026B40A4B0C210A4AFEF77FFF20600028E4D06B
S315000026C40849FFF727FAE0E7C40C0020E40C0020D1
S315000026D4D00C0020CC0C0020C80C0020FC0B0020E1
S315000026E4440C00206C2F00002DE9F047DFF884909D
S315000026F40546D9F800300F46DB68DC6804F10408A7
S315000027044046FEF773FE94F824305A070ED423F09D
S31500002714010384F824302046236ABDE8F0471847AD
S3150000272493421BD82046236A98473546A3697A1BE9
S31500002734EE182CBF01210021B74266602461EFD256
S31500002744AF4201D20029EDD0D9F800004146FEF788
S3150000275435FE2046236ABDE8F0471847044B414638
S315000027641868FEF72BFE2046236ABDE8F047184793
S31500002774C80C0020CC0C00202DE9F04F0027894D11
S31500002784894E8A4CDFF8388285B02B68D3F800B0BE
S31500002794BBF1000F00F0B180DB68D3F800B0FFF79F
S315000027A4CBFCFFF7DBFD33688246834243D883457F
S315000027B4306040F2BE8000222068ABEB0A01FFF7CE
S315000027C4DBF9FFF7C1FC38B94FF08053784A536000
S315000027D4BFF34F8FBFF36F8FCDE9017703970022C5
S315000027E4206801A9FFF730F80028CED0019B002B02
S315000027F4F5DBDDF80CA0DAF814301BB10AF104009D
S31500002804FEF7F4FDFFF7AAFD33688346984226D304
S31500002814019BC6F800B0013B082BE0D8DFE803F0C3
S3150000282429294D544D29294D5400DB684FF0FF31B9
S315000028341868FFF759FF2B681A68002AF5D1D8F8EB
S315000028440020C6F800A02A60C8F80030FFF77CFC18
S31500002854C2E7DB684FF0FF311868FFF745FF2B68C6
S315000028641A68002AF5D1D8F80020C8F800302A6082
S31500002874CEE79AF82410029ADAF8183041F00100EB
S315000028848AF82400D0182CBF4FF0010C4FF0000C2E
S315000028945845CAF80400CAF810A03FD8ABEB0202A8
S315000028A4934223D84A074BD421F001018AF8241015
S315000028B45046DAF82030984791E79AF8243023F006
S315000028C401038AF824308AE79AF82420029B42F00E
S315000028D401028AF82420CAF81830002B5AD05B4427
S315000028E45B45CAF80430CAF810A01CD8D8F8000012
S315000028F40AF10401FEF762FD71E7FFF71DFCFFF71D
S315000029042DFD33688246984295D3D8F80030C6F830
S3150000291400A01A68B2FA82F252094DE75A4502D962
S31500002924BCF1000FBED028680AF10401FEF746FD8B
S3150000293455E7FFF709FC51465846FFF7D5FE4BE726
S31500002944029A1A440AE0ABEB020293421BD8DAF865
S315000029542030504698474A46DAF8183013EB0209F5
S315000029642CBF01200020CB45CAF80490CAF810A059
S31500002974E9D2934501D20028E9D028680AF1040176
S31500002984FEF71CFD94E7D8F800000AF10401FEF7EF
S3150000299415FD8DE74FF48261064B074A0748FEF79B
S315000029A453FB00BFCC0C0020BC0C0020C40C002040
S315000029B400ED00E0A82F0000043300007C2F000087
S315000029C4C80C002010B588B0FFF758FE114B1B68E1
S315000029D4CBB1002407AA06A905A8CDE90544FDF74D
S315000029E441FC03222346059C00920294069C0A4954
S315000029F40A48079A0194FFF743FA094B186010B185
S31500002A04012008B010BD4FF4A371064B064A0748CF
S31500002A14FEF71AFBC40C0020D02F00007D2700000F
S31500002A24C00C0020D82F0000203300007C2F0000AB
S31500002A3402440346934200D1704703F8011BF9E7A9
S31500002A440A44431E914200D1704710B511F8014B58
S31500002A54914203F8014FF9D110BD000063616E5F26
S31500002A647468726561640000554152545F5468721B
S31500002A746561640075635356434E756D62657220D5
S31500002A843C3D2033000000002E2E2F72612F66730A
S31500002A94702F7372632F726D5F6672656572746FE1
S31500002AA4735F706F72742F706F72742E6300000000
S31500002AB42828285343425F54797065202A29202800
S31500002AC42830784530303045303030554C29202B6D
S31500002AD420307830443030554C2920292D3E494346
S31500002AE45352202620283078314646554C20292931
S31500002AF4203D3D2030000000757843726974696397
S31500002B04616C4E657374696E670000007851756573
S31500002B14756500002E2E2F72612F6177732F467212
S31500002B24656552544F532F4672656552544F532F61
S31500002B34536F757263652F71756575652E63000035
S31500002B4470785175657565007852657475726E2076
S31500002B54213D20282028202820426173655479705D
S31500002B64655F742029203020292029007078537449
S31500002B746174696351756575650000007853697AF7
S31500002B8465203D3D2073697A656F66282051756519
S31500002B9475655F742029000070784E6577517565F8
S31500002BA4756500007848616E646C650021282028EC
S31500002BB42070764974656D546F5175657565203D51
S31500002BC43D202828766F6964202A29302920292067
S31500002BD42626202820707851756575652D3E7578F2
S31500002BE44974656D53697A6520213D202820554234
S31500002BF4617365547970655F7420292030552029E6
S31500002C0420290000212820282078436F7079506FEE
S31500002C14736974696F6E203D3D2028202820426127
S31500002C247365547970655F74202920322029202920
S31500002C34202626202820707851756575652D3E75E9
S31500002C44784C656E67746820213D2031202920293F
S31500002C54000000002128202820785461736B476502
S31500002C64745363686564756C65725374617465281E
S31500002C7429203D3D2028202820426173655479701F
S31500002C84655F742029203020292029202626202823
S31500002C9420785469636B73546F5761697420213DBE
S31500002CA42030202920290000707851756575652D1E
S31500002CB43E75784974656D53697A65203D3D2030CB
S31500002CC4000000002128202820707851756575655C
S31500002CD42D3E706348656164203D3D202828766F4B
S31500002CE46964202A293029202920262620282070B4
S31500002CF47851756575652D3E752E7853656D6170D1
S31500002D04686F72652E784D75746578486F6C646566
S31500002D147220213D202828766F6964202A293029CB
S31500002D242029202900000000282070785175657537
S31500002D3465202900212820282028207076427566DF
S31500002D446665722029203D3D202828766F69642017
S31500002D542A29302920292026262028202820707870
S31500002D64517565756520292D3E75784974656D53D1
S31500002D74697A6520213D202820554261736554797E
S31500002D8470655F7420292030552029202900000011
S31500002D94785461736B0000002E2E2F72612F6177B9
S31500002DA4732F4672656552544F532F4672656552AA
S31500002DB4544F532F536F757263652F7461736B731E
S31500002DC42E630000282028202820282070784465B7
S31500002DD46C617965645461736B4C69737420292D35
S31500002DE43E75784E756D6265724F664974656D738E
S31500002DF4203D3D2028205542617365547970655FF6
S31500002E0474202920302029203F20282028204261B0
S31500002E147365547970655F74202920312029203A1E
S31500002E24202820282042617365547970655F7420D8
S31500002E342920302029202920290000007075785384
S31500002E447461636B42756666657220213D2028288D
S31500002E54766F6964202A293029000000707854614D
S31500002E64736B42756666657220213D202828766F4D
S31500002E746964202A293029007853697A65203D3D02
S31500002E842073697A656F6628205443425F7420294B
S31500002E940000000075785072696F72697479203C7D
S31500002EA420283529000000007852657475726E205A
S31500002EB4213D2028202D31202900000075785363F8
S31500002EC4686564756C657253757370656E64656464
S31500002ED420213D2030550000707850726576696F68
S31500002EE4757357616B6554696D65000028207854C5
S31500002EF4696D65496E6372656D656E74203E20303A
S31500002F045520290075785363686564756C6572533A
S31500002F14757370656E646564203D3D20315500000F
S31500002F247578546F705072696F7269747900000015
S31500002F3470784576656E744C697374007078556E56
S31500002F44626C6F636B656454434200007078546925
S31500002F546D654F757400000070785469636B735423
S31500002F646F57616974000000546D725100000000CF
S31500002F747854696D657200002E2E2F72612F617769
S31500002F84732F4672656552544F532F4672656552C8
S31500002F94544F532F536F757263652F74696D657241
S31500002FA4732E63002820707854696D65722D3E78FF
S31500002FB454696D6572506572696F64496E546963CC
S31500002FC46B73203E2030202900000000546D7220CF
S31500002FD4537663007852657475726E0000000000C3
S31500002FE406000000F02F00000000000000000104AD
S31500002FF400010000000001040101000000000100BE
S315000030040801000000000100000300000000011098
S31500003014010400000000011002040000000000008A
S315000030246400630065005A00590080018101820131
S315000030348301000076506F7274457869744372692F
S31500003044746963616C00000076506F7274456E7427
S315000030546572437269746963616C000076506F72BD
S315000030647453564348616E646C65725F4300000096
S315000030740204030404040000000102030405060715
S31500003084080C1014182030400400000034310000ED
S3150000309408000000B430000002000000A430000064
S315000030A40000006800000068000000200000002006
S315000030B400000068000000680000006000010C08C1
S315000030C400000068000000680000007000010908A4
S315000030D40000006800000068000000080001020803
S315000030E40000006800000068640000000001010898
S315000030F400000020000000200000006000010C0316
S3150000310400000020000000200000007000010903F8
S315000031140000002000000020000000080000020358
S3150000312400000020000000206400000000000103ED
S315000031340000006800000068000100080000006844
S3150000314400000068000100080000002000000020C4
S315000031540000000320040020F80C002000000003F7
S315000031640100020008001000200000007651756579
S315000031747565416464546F52656769737472790046
S3150000318478517565756553656D6170686F726554C0
S31500003194616B650078517565756552656365697619
S315000031A46500000078517565756547656E657269D9
S315000031B46353656E640000007851756575654372E6
S315000031C465617465436F756E74696E6753656D6189
S315000031D470686F72655374617469630078517565BC
S315000031E4756547656E657269634372656174655397
S315000031F47461746963000000785175657565476587
S315000032046E65726963526573657400007854617300
S315000032146B436865636B466F7254696D654F75746D
S3150000322400000000785461736B52656D6F766546D5
S31500003234726F6D4576656E744C6973740000000098
S31500003244765461736B506C6163654F6E4576656E3B
S31500003254744C69737452657374726963746564003B
S31500003264765461736B506C6163654F6E4576656E1B
S31500003274744C697374000000765461736B537769F8
S31500003284746368436F6E7465787400007854617370
S315000032946B496E6372656D656E745469636B000089
S315000032A4785461736B526573756D65416C6C00007F
S315000032B4765461736B537461727453636865647591
S315000032C46C657200765461736B44656C61790000B9
S315000032D4707276496E697469616C6973654E657757
S315000032E45461736B000000007072764372656174FA
S315000032F4655374617469635461736B000400000060
S3150000330470727650726F636573735265636569761E
S315000033146564436F6D6D616E647300007854696D06
S31500003324657243726561746554696D65725461733F
S315000033346B0000004275696C7420776974682052CA
S31500003344656E6573617320416476616E636564209E
S31500003354466C657869626C6520536F667477617232
S3150000336465205061636B6167652076657273696F6A
S315000033746E20362E322E3000362E322E30000000CD
S309000033840000020637
S30900003388F8B500BFCF
S3090000338CF8B500BFCB
S30900003390D100000062
S30900003394A900000086
S3090100A100FFFFFFFF58
S3090100A200FFFDFFFF59
S3090100A280F8F8FFFFE5
S7050000127177
