S01400004D6F64756C61726D5F4253502E737265638B
S3150000000000040020F919000071180000F51900001D
S31500000010F5190000F5190000F5190000F5190000A2
S315000000200000000000000000000000008103000046
S31500000030F51900000000000099030000010400000B
S315000000409D1100002D1300005D1400009D1100009D
S3150000005079120000ED060000610600007D07000031
S31500000060C5070000010C0000950D0000B50E00004C
S30900000070950F0000E2
S315000000740348044B834202D0034B03B1184770472D
S3150000008484A2000184A2000100000000064B074977
S31500000094C91A891048BF0131491003D0044B0BB16A
S315000000A401481847704700BF84A2000184A20001DA
S315000000B40000000010B5064C237843B9FFF7D8FFBB
S315000000C4044B13B10448AFF300800123237010BD21
S315000000D4200400200000000084A2000108B5054B9E
S315000000E41BB105490548AFF30080BDE80840FFF79A
S315000000F4CDBF00BF000000002404002084A200013C
S3150000010408B5012002F0FAFCFBE700BF022800D084
S3150000011470470249024800F059BC00BF4C3A00003F
S31500000124A804002008B5012002F0E8FCFBE700BFA4
S3150000013408B5012002F0E2FCFBE700BF10B5044657
S3150000014400F06EF82046BDE81040FFF7D9BF00BFA7
S3150000015430B501240D480E4A03680E4D85B01919B1
S31500000164CDE901250C4B01604FF480720B490C4814
S31500000174009402F07FFA0B4B186008B105B030BD4D
S31500000184014605B0BDE8304000F048B83C0A0020FE
S31500000194980D002040040020443A0000703400000A
S315000001A4410100003C040020704700BFFFF7FCBF7C
S315000001B410B5044600F034F82046BDE81040FFF7B9
S315000001C4B1BF00BF30B501240D480E4A03680E4D79
S315000001D485B01919CDE901250C4B01604FF48072E5
S315000001E40B490C48009402F045FA0B4B186008B111
S315000001F405B030BD014605B0BDE8304000F00EB88C
S315000002043C0A002098110020B4040020483A00005B
S315000002147C340000B5010000B004002000BE704725
S3150000022438B5164C4FF0FF31206801F099FF0128CC
S3150000023403D000212068FFF7F1FF114B1A7802B1B1
S3150000024438BD01221A70FFF7B1FF0E4D2B68013B32
S315000002542B60002BF4D0002320681A46194601F0BF
S31500000264F7FD0128F2D000212068FFF7D7FF2B689D
S31500000274013B2B60002BEED138BD00BF340A0020B1
S31500000284380A00203C0A002038B500230D4D0E4CD8
S3150000029401214FF480700D4A2B60237001F09CFD00
S315000002A40B4B186048B1FFF753FF00F039F8FFF71E
S315000002B489FF02F0EDFA002038BD0146FFF7AEFFD4
S315000002C4F1E700BF3C0A0020380A0020EC090020B0
S315000002D4340A0020802330B4034D044C05600C60BE
S315000002E4136030BC704700BF8409002084070020D7
S315000002F4802330B4034D044C05600C60136030BC9D
S31500000304704700BF1C0700201C05002010B50446DA
S31500000314FFF786FF2046BDE81040FFF709BF00BF80
S3150000032430B501240D480E4A03680E4D85B01919DF
S31500000334CDE901250C4B01604FF480720B490C4842
S31500000344009402F097F90B4B186008B105B030BD64
S31500000354014605B0BDE83040FFF760BF3C0A002007
S3150000036498150020440A0020983A000088340000BA
S3150000037411030000400A002000BEFEE71EF0040F31
S315000003840CBFEFF30880EFF309800149084700002A
S31500000394250400000F4B1968EFF309821EF0100FB5
S315000003A408BF22ED108A22E9F04FEFF30B8342F8DF
S315000003B4043D0A604FF0100080F31188BFF34F8F9D
S315000003C4BFF36F8F02F0DAFB4FF0000080F3118861
S315000003D400F002B8980C0020074801680A6802CAAF
S315000003E481F30B88B2E8F04F1EF0100F08BFB2EC91
S315000003F4108A82F309887047980C002010B5EFF331
S315000004041184102383F3118802F0A8FB18B14FF06E
S315000004148052024B5A6084F3118810BD00ED00E04F
S3150000042408B5836913F8023C022B02D0032B04D8C7
S3150000043408BDBDE80840FFF7CFBF4FF47E71024BFD
S31500000444024A034801F0C4F994340000E03A00007B
S31500000454A834000070B44FF080756FF00204094EA2
S31500000464283122F0010240F80C6C40F8045C40F894
S31500000474244C40F8203C40F8082C70BC40F8481D39
S31500000484704700BF7D03000008B5EFF31181102308
S3150000049483F311880A4A13680133012B136000D0D1
S315000004A408BD084A084B11605B68C3F30803002BB8
S315000004B4F6D040F2A441054B054A064801F088F9F6
S315000004C4B00A0020AC0A002000ED00E0D0340000A1
S315000004D4CC3A0000A834000008B5094A13683BB1B9
S315000004E4013B13601BB9074B1B6883F3118808BDD6
S315000004F440F2AD41044B054A054801F069F900BFD5
S31500000504B00A0020AC0A002018350000B83A0000F2
S31500000514A834000080B3194B9A8990B2120409D406
S31500000524BFF34F8F30BFBFF36F8F62B6BFF36F8FCA
S3150000053472B670474AF202514FF0000CB3F8FE232C
S31500000544A3F8FE1392B242F42542A3F80CC0A3F812
S31500000554FE23BFF34F8F30BFBFF36F8F62B6BFF377
S315000005646F8F72B6B3F8FE23A3F8FE1392B242F469
S3150000057425429881A3F8FE23704700BF00E001409E
S3150000058408B572B602F0D2F90120FFF7C3FF62B6CE
S31500000594BDE8084002F0D2B90D4B0E4A1B68A2FB17
S315000005A403239B09013BB3F1807F00D370474FF0CF
S315000005B4E0224FF0F00C0020072110B4064C5361E2
S315000005C484F823C0906111615DF8044B704700BF45
S315000005D4400B0020D34D621000ED00E0F02208B578
S315000005E40B4B83F82220FFF7D7FF0A4A536B43F0DD
S315000005F44043536362B6BFF36F8FEFF3148C2CF052
S31500000604040C8CF31488BFF36F8F02DF00BEFDE782
S3150000061400ED00E000EF00E0F0B5846A85B0054621
S315000006240F4694466E46B4B194E80F0086E80F0070
S31500000634EB6920461B78A760236084F804C0EB6A44
S31500000644E3606B6A9847AC6A1CB196E80F0084E8CD
S315000006540F0005B0F0BD3446EAE700BFEFF30383AD
S31500000664103B1F4A5BB203F1C00152F8210020F48B
S31500000674803042F8210052F821201A4A52F8230009
S31500000684C3691B6983B1036903B17047026A002118
S31500000694937803F07F0343F004039370436AC160C5
S315000006A4C3B18022FFF7B8BF0369026A002BEED0FC
S315000006B48378C16803F00303022B0CD00B78D37044
S315000006C48278D0E9031302F003029B1A1144C0E9AD
S315000006D40313D9E770470B8843F47E43D381EFE7CE
S315000006E400600040000B002010B582B0EFF30383D6
S315000006F4103B1F4A5BB203F1C00152F8210020F4FB
S31500000704803042F8210052F821201A4A52F8234038
S31500000714A27802F00303022B236A0CBF198A5979C3
S31500000724A3690CBFC1F30801C9B2019143B9636A55
S31500000734B3B10422204602B0BDE81040FFF76CBFF7
S3150000074402F0030201A9606902F082FED4E90521E0
S31500000754A37803F003031A44C91AC4E9052109B1AD
S3150000076402B010BD636A002BFAD00122E2E700BF93
S3150000077400600040000B002010B5EFF303830E4A1F
S31500000784103B5CB252F82400026A937803F07B03B0
S315000007949370436A1BB102220021FFF73DFF074A0B
S315000007A404F1C00352F8231021F4803142F82310D7
S315000007B452F8233010BD00BF000B0020006000403B
S315000007C410B5EFF303831A4A103B5CB252F82400C7
S315000007D4837803F00303022B036A0CBF198A597941
S315000007E493F804C00CBFC1F30801C9B21CF0100F82
S315000007F40CF0380206D093F81CC01CF0010F08BF99
S3150000080442F0400293F804C00CF0C70C83F804C00D
S31500000814436A0BB1FFF700FF064A04F1C00352F81E
S31500000824231021F4803142F8231052F8233010BDEE
S31500000834000B0020006000402DE9F84F0388DBB16F
S3150000084482464FF0000B4FF00109DFF8D0800024F8
S31500000854304D4FEACB07DAF8043035F8022BD919B4
S31500000864898891420AD00134032CF4D1BAF80030B5
S315000008740BF1010B5B45EAD8BDE8F88FDB5909FAA1
S3150000088404F603F0B853B3F1807FF6B298F8BB349C
S3150000089413D0334231D1204A04F1200612F816301F
S315000008A4DB09E0D012F81630012123F08003C820BA
S315000008B402F8163000F094FFD5E7334211D0164AF9
S315000008C404F1200112F81130DB09CCD112F81130F1
S315000008D4C82043F0800302F81130012100F080FFA4
S315000008E4C1E7012001F05AF898F8BB3401203343DC
S315000008F488F8BB3401F022F8E1E7012001F04EF854
S3150000090498F8BB34012023EA060388F8BB3401F0C7
S3150000091415F8C0E7F43A00000030084000E0014052
S31500000924F8B50646FFF788FFEFF31082012383F339
S315000009341088234F3B681BB92249CB704023CB70E8
S315000009443B6801333B6082F31088338823B300216C
S315000009541D4D08E01B01134445F82340328801313C
S315000009648BB29A4218D9736853F8314003EBC1022B
S315000009749288E0034FEA1223D2B2EBD502EB0310BE
S3150000098455F820E024F4803C2EF4803E45F820E01F
S315000009941B0145F820C0DEE7EFF31082012383F341
S315000009A410883B6813B13B68013B3B603B681BB94D
S315000009B480200449CB70C87082F31088F8BD00BF4C
S315000009C4FC0A0020000D08400008084008B5034B47
S315000009D403600846FFF7A4FF002008BD54524F5099
S315000009E430B5836B83B004460A466D46A3B193E8DB
S315000009F4030085E80300E16B1A7119601846636BFE
S31500000A049847A36B1BB195E8030083E80300002312
S31500000A1484F82B3003B030BD2B46ECE7F0B5002448
S31500000A24402203691C7003691A70066933785B06F1
S31500000A34FCD5C027377006680769766A6B4D367928
S31500000A444FF0000C46F0E0063E7406680769766AC5
S31500000A544FF0B30EF678664A46F0E0067E740668F2
S31500000A640769766A634CB678634B360106F07006FE
S31500000A7446F00806BE700668766A3778012F7778DE
S31500000A8414BF0426052646EA47060769F6B2FE7031
S31500000A9406687668AE4214BF7726F72605696E7136
S31500000AA4056985F806C0056985F807E04E7B91F966
S31500000AB4115036015719F6B287F8006344F8250039
S31500000AC405F1C00653F826706CF3104743F82670F8
S31500000AD453F82660BFF35F8F01264FEA551E4FEA8F
S31500000AE48E0E05F01F050EF1604E0EF5614E06FAE8
S31500000AF405F5CEF88051CEF8005091F80DE091F945
S31500000B040F504FEA0E1E57195FFA8EFE87F800E360
S31500000B1444F8250005F1C00E53F82E706CF3104707
S31500000B2443F82E7053F82E70BFF35F8F4FEA551EAD
S31500000B344FEA8E0E05F01F050EF1604E06FA05F516
S31500000B440EF5614ECEF88051CEF8005091F80DE0C6
S31500000B5491F910504FEA0E1E57195FFA8EFE87F868
S31500000B6400E344F8250005F1C00E53F82E706CF32B
S31500000B74104743F82E7053F82E70BFF35F8F4FEA79
S31500000B84551E4FEA8E0E05F01F050EF1604E06FA4D
S31500000B9405F50EF5614ECEF88051CEF800504D7B2A
S31500000BA491F90E102D010A44EDB282F8005344F86F
S31500000BB4210001F1C00253F822406CF3104443F8BB
S31500000BC4224053F82230BFF35F8F4B099B0001F09C
S31500000BD41F0103F160438E4003F56143C3F880614E
S31500000BE41E609F2203691A70F0BD00BF40420F00C9
S31500000BF400E100E0000B00200060004010B582B068
S31500000C04EFF30383103B5F4A5BB2C03352F8231001
S31500000C1421F4803142F8231052F82330EFF3038392
S31500000C24594A103B5BB252F8234094F82D305BBB13
S31500000C34A369022B22D9E369012B0ED12269137908
S31500000C4443F0100313712269137943F008031371F7
S31500000C542269137923F01003137123685B6ADB7925
S31500000C64002B3ED101222369DB7CDBB28DF80730F1
S31500000C749DF8073084F82D2002B010BD226913793F
S31500000C8443F040031371D6E7E369002BF4D02268DE
S31500000C94526AD279FAB9032B17D0022B26D0012B2C
S31500000CA434D02269236AD17C6269D154D4E90732EB
S31500000CB40132013BC4E90732002BDDD121690A79EF
S31500000CC463F386120A7102B010BD2269137943F0E8
S31500000CD440031371E5E705212046FFF781FEE3692A
S31500000CE4D9E705212046FFF77BFEBBE72269137986
S31500000CF443F0100313712269137943F00803137147
S31500000D042269137923F010031371CAE794F82A2091
S31500000D1472B322681D4892F90F20510902F01F028E
S31500000D2403FA02F2203140F82120BFF34F8FBFF3BC
S31500000D346F8F04202169CA7942F08002CA71216941
S31500000D440A7942F010020A7121690A7922F008022E
S31500000D540A7121690A7922F010020A712269507017
S31500000D6421694A7922F001024A7184F82C3098E705
S31500000D7408212269537A03F0F703537223695970E1
S31500000D848FE700BF00600040000B002000E100E098
S31500000D9410B5EFF30383103B424A5BB2C03352F8FB
S31500000DA4231021F4803142F8231052F82330EFF354
S31500000DB403833D4A103B5BB252F8234094F8273034
S31500000DC4002B3FD194F82930002B3AD123685B6A73
S31500000DD4DB792BB194F82B3013B9236A002B5BD142
S31500000DE4E3692169002B40D1CB79C02223F080032B
S31500000DF4CB71216901E0013A02D0CB79DB09FAD142
S31500000E042368284A93F91030C03352F8231021F48A
S31500000E14803142F8231052F82330236893F91030B6
S31500000E24002B09DB01215A09204803F01F03603215
S31500000E3401FA03F340F822302269D37943F04003E0
S31500000E44D37110BD94F82630032B1CD094F82420BB
S31500000E5423699A7494F8282094F827300132013BC8
S31500000E6484F8282084F8273010BD236A6269D35C8D
S31500000E748B74D4E907320132013BC4E90732002BF3
S31500000E84DFD12169B0E794F82830022BDED194F83B
S31500000E943030002BDAD110BD05212046FFF7A0FD26
S31500000EA49EE700BF00600040000B002000E100E068
S31500000EB438B5EFF30383334A103B5BB252F8234051
S31500000EC423685B6ADB79002B48D194F829301BB17F
S31500000ED494F82730012B4FD0E369DBB12169C02395
S31500000EE4CA7922F04002CA71216901E0013B02D0AD
S31500000EF4CA795206FAD4EFF30383103B224A5BB253
S31500000F04C03352F8231021F4803142F8231052F8EA
S31500000F14233038BD94F82A202AB3012022681B4DB9
S31500000F2492F90F20510902F01F02203100FA02F251
S31500000F3445F82120BFF34F8FBFF36F8F2169CA791C
S31500000F4442F08002CA7104212269517021694A79EA
S31500000F5463F300024A7184F82C00BFE7052120469A
S31500000F64FFF73EFDB1E708212269537A03F0F70340
S31500000F74537223695970B1E794F83030002BADD021
S31500000F84AAE700BF000B00200060004000E100E07B
S31500000F9438B5EFF303834F4A103B5BB252F8230094
S31500000FA40269537A517ADC0601F0E00151725FFA64
S31500000FB483FC03F003022BD50369597849064DD403
S31500000FC40024012580F82B50DC710168FFF726FD0B
S31500000FD4B32290F8263080F82C4080F82830C4617B
S31500000FE480F82A400369846929460462DA71FFF7A6
S31500000FF4F7FCEFF30383103B374A5BB2C03352F876
S31500001004231021F4803142F8231052F8233038BDDE
S31500001014002A5CD11CF0080F11D0C369002B45D1FE
S3150000102490F82B30002B41D1B32290F82910036994
S31500001034C1F10301C9B2DA71FFF7D2FCD9E790F81E
S315000010442C200CF0040342B3002BD2D0C369002B2E
S315000010543BD190F82B30002B37D1E5E7002AAFD1EE
S315000010645A78C2F380115206D4D5082280F82B1080
S315000010745A70036801695A6A94791378527943EA73
S31500001084C41343EA021343F00203DBB2CB700269D2
S31500001094537943F001035371ABE7002BA9D00368DE
S315000010A45B6ADB79002BA4D00421C5E70023B321B6
S315000010B4826990F826400262026980F82C3080F832
S315000010C42840C36180F82A30D1710121B4E703694D
S315000010D476E700BF000B0020006000401F2930B5F2
S315000010E434D801F1400E00EBCE1EDEF800301A4D66
S315000010F4C3F380745471DEF8084004F00704946066
S3150000110423F06044DB0F14601371DEF804301B0F08
S31500001114EC5C0EF10C03947144B10C34A6440B320E
S3150000112413F801CB734502F801CFF9D11F2905D86D
S3150000113401238B40DB43C0F8B03030BDFF232729A1
S315000011448CBF6831203140F8213030BD01F1A00E4A
S3150000115400EBCE1EC9E700BFFC3A000070B5456936
S3150000116404460E4698B0A5B160222946684602F0A8
S315000011746FF960223146284602F06AF92846236947
S315000011849847606918B16022694602F061F918B09F
S3150000119470BD0D46F2E700BF30B599B0EFF3038397
S315000011A4103B5BB2032B2DD01C462F4B6022002133
S315000011B4684653F8245002F043F94FF48073002034
S315000011C4ADF804306B682A681B68694602EB0312A3
S315000011D4D26892B202922A6802EB0312D06000939C
S315000011E4AB6928460493FFF7B9FF204A04F1C0030C
S315000011F452F8231021F4803142F8231052F8233098
S3150000120419B030BD1A4B6022002168461C6802F0F2
S3150000121417F94FF480530021ADF804302368D3F84E
S3150000122490301A0C1B0403EB0273029322689B038F
S31500001234C2F8901010D52368D3F8A83293FAA3F312
S31500001244B3FA83F30393226802EB8303D3F8E02013
S3150000125422F00402C3F8E020A369204669460493F9
S315000012640324FFF77BFFC0E7000B0020006000406B
S31500001274B40A00202DE9F043284D99B0D5F8AC42C4
S3150000128494FAA4F4002C38D0B4FA84F4072C34DC91
S315000012944FF48063012704F12008CDF80C80ADF8E3
S315000012A40430D5F8A032A7403B421BD105EBC41647
S315000012B406F5C046DFF86C90083633684146C3F33A
S315000012C40123164805AA0093FFF708FF009B694609
S315000012D459F8230083690493FFF740FFD5F8A03239
S315000012E43B42EAD0A40004F1804404F53024D4F847
S315000012F4E03023F00803C4F8E030084BD3F8AC32EE
S3150000130443B9074AD2F8101363F31041C2F8101315
S31500001314D2F8103319B0BDE8F08300BF00000B40CB
S3150000132400600040B40A00202DE9F04399B0EFF3C1
S315000013340384474B103C64B253F82490D9F8043024
S31500001344D9F818201F681D6900970492D9F800106F
S3150000135401F5985818F80730B844002B65D00726CD
S315000013642CE04FF4006003F5617301EB8302ADF8E2
S315000013740400136893FAA3F31BB1B3FA83F3072BA0
S3150000138407DD536893FAA3F3002B5ED0B3FA83F315
S315000013942033D9F8001003EB8712114491F8D027B3
S315000013A422F0060281F8D027694648460393FFF7E0
S315000013B4D5FE98F80030C3B3D9F8001098F8002089
S315000013C47B00D0B2D20727F00047CAD4020725D53E
S315000013D4EA690C3352F82330D1F8B42213F4805F4F
S315000013E40CBF4FF400534FF4006307EB470106FAB2
S315000013F401F11140ADF8043091FAA1F111B3B1FA3B
S3150000140481F101F12803D9F8002002EB8102D2F818
S31500001414E01121F01001C2F8E011C5E703F56B7382
S315000014244FF4007001EB8302A1E70A4BC03453F872
S31500001434242022F4803243F8242053F8243019B0AF
S31500001444BDE8F08348232021DDE74023A1E700BF60
S31500001454000B0020006000402DE9F04399B0EFF343
S315000014640388304BA8F110084FFA88F853F828403F
S31500001474D4E90023D2F8B0621A6806F03F0696FA59
S31500001484A6F6002E49D0B6FA86F3012513F01C0FF2
S3150000149403F108011E4618BF03F0030305FA01F51C
S315000014A40CBF2833283303934FF480630092ADF8BE
S315000014B404302068D0F8A0322B4214D1DFF86C90A7
S315000014C406F12807394605AAFFF708FE009B694678
S315000014D459F8230083690493FFF740FE2068D0F887
S315000014E4A0322B42EED000EB8600D0F8E03123F098
S315000014F40803C0F8E0312368D3F8B03253B90A4A76
S3150000150408F1C00852F8281063F3104142F8281075
S3150000151452F8283019B0BDE8F0834FF480752823BB
S31500001524C1E700BF000B002000600040B40A0020A1
S31500001534064B074993F826001A6A51F82030C2F37D
S3150000154402620449D3400B60704700BF00E00140CB
S3150000155400040020400B0020704700BFF8B54AF293
S31500001564035001236249634AA1F8FE03A2F8043139
S31500001574B2F804319BB2002BFAD101204FF4004596
S315000015844FF0090C5C4CDFF88CE15C4EC4F804E0C7
S31500001594DFF884E15A4FC4F80CE0A2F80001594A76
S315000015A45349B06030602760A5602561626191F897
S315000015B42620086A54F82220534EC0F30260C24023
S315000015C4326081F8133481F8A2C091F8803423B9CB
S315000015D491F88134990700F08580454D95F880345B
S315000015E4002B74D00022424B83F8812483F8802494
S315000015F400233F4981F8323091F83C301A07FBD575
S3150000160443F2021000233A4A088581F82A3092F8F8
S315000016143C309B06FBD50320052336494FF0F10CDD
S3150000162481F81C0139493A48116282F8263092F849
S315000016342630156A54F82310C5F302640123E140E9
S31500001644F024316080F80CC00372047382F83030E1
S3150000165482F8523092F87630254943F0400382F8F6
S31500001664763091F87630DB09FBD0C523032281F866
S315000016746E2081F8763091F876301D4803F0BF036A
S3150000168481F8763090F87630DB09FBD190F8783023
S31500001694174A43F0400380F8783092F87830DB0933
S315000016A4FBD0C423002082F8700082F8783092F8C8
S315000016B478300F4903F0BF0382F8783091F8783018
S315000016C4DB09FBD14FF42543A1F8FE33F8BD012114
S315000016D4C82085F8801400F083F895F88034012B2F
S315000016E4FBD17FE74FF47A70FFF736FF80E700BF40
S315000016F400E0014000C001400004002000700040EA
S31500001704002D310100C2EB0B400B002021120120F9
S315000017140020004000127A0000366E0138B500251C
S31500001724284C0121C82084F8285000F059F884F880
S31500001734245094F82430002BFBD194F8243021490A
S3150000174443F0020384F8243091F82430C3F34000B4
S315000017549B07F9D41B4A81F8220092F8223003F041
S31500001764FF00002BF9D192F84030164960F3C713F5
S3150000177482F8403091F84030DB09FBD191F8420001
S31500001784104A63F3C71081F8420092F84230DB092D
S31500001794FBD192F844000B4963F3C71082F8440066
S315000017A491F84430C3F3C014DB09F9D1012000F0E9
S315000017B4F5F8054B012083F8BB44BDE8384000F03A
S315000017C4BDB800BF0030084000E00140704700BFCC
S315000017D400BEFEE7A0F101000028FBD1704700BF60
S315000017E41F4B204A1B6800FB01F1934213D302F1FD
S315000017F4854202F5071203F5741302F6834203F6D3
S31500001804FF03A2FB03231B0DA3FB01314FF0FF30A3
S31500001814F9B1FFF7DFBF4FF47A7210B4A1FB02C42B
S315000018241148B0FBF3F34FF0FF3044B9BCFBF3FCB3
S315000018344FEA9C0088B15DF8044BFFF7CBBF9B00D1
S31500001844B1FBF3F1A1FB0212002AF4D1084620B140
S31500001854F1E71846002BDCD170475DF8044B70475E
S31500001864400B002000127A0000CA9A3B70B500248F
S315000018740B4B0C4EB3F82021B3F84051ADB21540D2
S3150000188425FA04F3DB0704D556F82430E0B203B195
S3150000189498470134102CF3D1014BA3F8305170BD95
S315000018A400600040BC0A002030B5032085B000F07B
S315000018B475F800256FF0FF014FF0FF301B4B1C4CF1
S315000018C4996422462B464FF0010ECDE901000390A0
S315000018D432F8021B0EFA03FC013311B1012520EA8A
S315000018E40C000D2BF4D1F5B10190124B0F4A106781
S315000018F4C3F88002029903205167C3F8841203993E
S315000019049167C3F8881200F019F800230A4834F8DE
S31500001914022B03F1C00101330AB140F821200D2B3B
S31500001924F5D105B030BD4FF0FF30DEE70080004052
S315000019349C3A000000E100E000600040EFF31081F3
S31500001944012383F31088124B33F8102092B22AB184
S3150000195433F81020013A92B223F8102033F81030ED
S315000019649BB293B910B40B4A0B4CB2F8FE3334F85D
S3150000197410009BB243F4254323EA0003A2F8FE3386
S3150000198481F310885DF8044B704781F31088704723
S31500001994340B002000E00140E43B000030B4EFF3D8
S315000019A41081012383F310880E4A32F810309BB25B
S315000019B46BB90D4C0D4DB4F8FE3335F810C09BB21F
S315000019C443EA0C0343F425439BB2A4F8FE3332F8EE
S315000019D4103001339BB222F8103081F3108830BCEA
S315000019E4704700BF340B002000E00140E43B0000D8
S315000019F400BE704708B500F035F8FEF745FCFEE773
S31500001A04F8B5174F05463E68A6B17C6806EB460650
S31500001A1404EB860602E00C34B4420BD0637AAB4284
S31500001A24F9D1D4E900020021121A0C3401F008FDA0
S31500001A34B442F3D1BE6896B1FC6804EB061602E024
S31500001A441034A6420BD0637BAB42F9D1D4E9000231
S31500001A54A168121A103401F0FBFCA642F3D1F8BDBA
S31500001A640C3B00004FF47001274B284A70B5002048
S31500001A74C3F888109A60FEF749FBFFF76FFD012053
S31500001A84FEF744FB224B83F30A880020FFF7B8FFD6
S31500001A94FFF74EFDFFF742FE0320FFF77FFF00230B
S31500001AA44FF6FF701B4903F1080201330C2B21F892
S31500001AB41200F8D100240320FFF740FF0320FFF7AC
S31500001AC46DFF154B03205C609C60DC601C61FFF7B6
S31500001AD435FF0220FEF71AFB0120FFF791FF0F4D99
S31500001AE40F4B5B1BA3424FEAA30605DD55F8043BE7
S31500001AF401349847A642F9DCFFF7D6FEBDE87040EC
S31500001B040020FFF763BE00BF00ED00E00000000008
S31500001B1400000020000D084000000E404C3E00006E
S31500001B24503E00004FF0FF31002200F10803C0E9E7
S31500001B340131C0E903330260704700BF002303612B
S31500001B44704700BF30B40D686B1C10D000F1080359
S31500001B541C465B681A68AA42FAD94B6099608C6085
S31500001B6461600861036830BC01330360704704692F
S31500001B746368F2E70369D0E901128A60416851603B
S31500001B845A68824204BF82685A6000220261186859
S31500001B9401381860704700BF70B51646026C0446DB
S31500001BA4856B2AB9066801354EB31046A56370BD28
S31500001BB48EB9406801F04CFC6368216CA2680B4442
S31500001BC49342636028BF236805F1010528BF63605B
S31500001BD4A563002070BDC06801F03AFC226CE3687E
S31500001BE451429B1A2268E360934202D2A3680B44D3
S31500001BF4E360022E08D00135A563002070BD80681D
S31500001C0401F084F9A660D1E7012D38BF0125DFE78D
S31500001C1470B50546FEF738FC95F845305CB2002CE5
S31500001C2414DD05F1240603E0631EDAB25CB26AB180
S31500001C346B6A5BB1304601F037F80028F4D001F046
S31500001C4401F9631EDAB25CB2002AF1D1FF2385F8EA
S31500001C544530FEF741FCFEF717FC95F844305CB2BC
S31500001C64002C14DD05F1100603E0631EDAB25CB243
S31500001C746AB12B695BB1304601F016F80028F4D03E
S31500001C8401F0E0F8631EDAB25CB2002AF1D1FF2358
S31500001C9485F84430BDE87040FEF71EBC70B50028D8
S31500001CA448D0C56B0446002D3DD0026CA2FB052529
S31500001CB4002D38D10E46FEF7E7FBD4E90F30FF219D
S31500001CC400FB03F32268181A626013440244A563F6
S31500001CD4C4E9023284F8441084F84510BEB9236975
S31500001CE41BB9FEF7F9FB012070BD04F1100000F0EA
S31500001CF4DBFF0028F5D04FF08052124B5A60BFF339
S31500001D044F8FBFF36F8FFEF7E7FB012070BD04F121
S31500001D141000FFF707FF04F12400FFF703FFFEF7A7
S31500001D24DBFB012070BD4FF4B671074B074A084828
S31500001D34FFF74EFD40F23711064B044A0448FFF7FD
S31500001D4447FD00BF00ED00E0683500007C3C000064
S31500001D54343500006035000030B583B01BB3D8B10C
S31500001D640D461C4682B1B9B148230193019B482B09
S31500001D7420D1E0630121204622602564019BFFF700
S31500001D848DFF204603B030BD31B948230193019B32
S31500001D94482B0FD12246ECE74FF4D871094B0A4A77
S31500001DA40A48FFF715FD4FF4C271094B064A074866
S31500001DB4FFF70EFD4FF4CB71064B034A0348FFF7BA
S31500001DC407FD00BFB8350000603C00003435000054
S31500001DD48C3500009C35000030B583B0B0B1884224
S31500001DE40D4613D31446FAB148230193019B482B9D
S31500001DF413D1002322600121D06320462364019A73
S31500001E04FFF74CFF2046A56303B030BD4FF45E7167
S31500001E14094B0A4A0A48FFF7DBFC4FF4CB71094B1E
S31500001E24094A0748FFF7D4FC4FF4C271074B064A28
S31500001E340348FFF7CDFC00BFC43500003C3C00005E
S31500001E44343500009C350000603C00008C350000F1
S31500001E542DE9F04184B00192002800F0AF800446D9
S31500001E640F461E46002900F08B80022E03D1E36B39
S31500001E74012B40F09C8000F0EBFF002867D0FEF7B2
S31500001E8403FBA26BE36B9A4253D3022E51D000207C
S31500001E94DFF8448105460DE0FEF71EFB2046FFF7FA
S31500001EA4B7FE00F04BFDFEF7EFFAA26BE36B0120E1
S31500001EB49A423ED3019B002B6DD0B0B3FEF70CFBC8
S31500001EC400F034FDFEF7E0FA94F84430FF2B08BF27
S31500001ED484F8445094F84530FF2B08BF84F84550E5
S31500001EE4FEF7FAFA02A801A900F064FF002858D107
S31500001EF4FEF7CAFAA26BE36B9A42CDD1FEF7ECFA6F
S31500001F04019904F1100000F07FFE2046FFF780FEE1
S31500001F1400F014FD0028C6D14FF08053C8F80430F1
S31500001F24BFF34F8FBFF36F8FBDE702A800F036FFF4
S31500001F34C4E7324639462046FFF72EFE636A83B964
S31500001F44A8B9FEF7C9FA012004B0BDE8F081019BE7
S31500001F54002B94D040F2BB311C4B1D4A1D48FFF7A1
S31500001F6437FC04F1240000F09FFE0028E9D04FF06E
S31500001F748052194B5A60BFF34F8FBFF36F8FE0E760
S31500001F84036C002B3FF471AF40F2B731134B104A88
S31500001F941048FFF71DFCFEF79FFA002004B0BDE8C9
S31500001FA4F0812046FFF734FE00F0C8FCF5E74FF455
S31500001FB46E710B4B064A0748FFF70AFC40F2B6312E
S31500001FC4084B034A0348FFF703FC00BF74360000BE
S31500001FD4283C00003435000000ED00E0CC3500005C
S31500001FE42436000060350000F0B585B00192002863
S31500001FF400F0A38004460E4600296ED000F028FFA8
S31500002004002857D0FEF740FAA56B002D6FD1019B2F
S31500002014002B35D002A800F0C1FE2F46FEF75CFA6D
S3150000202400F084FCFEF730FA94F84430FF2B08BF26
S3150000203484F8447094F84530FF2B08BF84F8457043
S31500002044FEF74AFA01A902A800F0B4FEE8B9FEF7C1
S315000020541BFAA36B33BBFEF73FFA019904F1240084
S3150000206400F0D2FD2046FFF7D3FD00F067FC58B31D
S31500002074FEF70AFAA56B002D39D1019B002BCDD1B1
S31500002084FEF72AFA002005B0F0BD2046FFF7C0FD92
S3150000209400F054FCFEF7F8F9A36B002BF0D0FEF722
S315000020A41BFAE5E7FEF718FA2046FFF7B1FD00F044
S315000020B445FCDDE7019B002BA4D040F2F251224BF4
S315000020C4224A2348FFF784FB4FF08052214B5A6083
S315000020D4BFF34F8FBFF36F8FCAE7036C002B8DD00E
S315000020E440F2ED511C4B194A1948FFF771FB226C5B
S315000020F45AB1E168A36811449942E16028BF216896
S31500002104304628BFE16001F0A3F92369013DA563C8
S3150000211423B9FEF7E1F9012005B0F0BD04F1100082
S3150000212400F0C2FD0028F4D04FF08052094B5A60EB
S31500002134BFF34F8FBFF36F8FEBE740F2E951074BC5
S31500002144024A0348FFF744FB74360000183C0000BB
S315000021543435000000ED00E0543700004837000035
S31500002164F0B585B00191002800F0BA80066C0446EB
S31500002174002E40F0AE8000F06BFE0546002855D0D8
S315000021843546FEF781F9A36B0027002B41D1019B4D
S31500002194002B7FD0002D63D0FEF79EF900F0C6FB1E
S315000021A4FEF772F994F84430FF2B08BF84F84470A4
S315000021B494F84530FF2B08BF84F84570FEF78CF978
S315000021C401A902A800F0F6FD00283AD1FEF75CF951
S315000021D4A36B002B4BD1FEF77FF92368002B5CD051
S315000021E4019904F1240000F00FFD2046FFF710FDCD
S315000021F400F0A4FB38B94FF080523D4B5A60BFF350
S315000022044F8FBFF36F8FFEF73FF9A36B0125002BAA
S31500002214BDD02268013BA363002A56D02369002B54
S3150000222444D1FEF759F9012005B0F0BD019B0646DD
S31500002234002BA6D040F28B612E4B2F4A2F48FFF776
S31500002244C7FA2046FFF7E4FC00F078FBFEF71CF91A
S31500002254A36B4BB9FEF740F98EB9002005B0F0BD6B
S3150000226402A800F09BFD97E7FEF736F9CBE7FEF7E9
S3150000227433F92046FFF7CCFC00F060FBC3E7FEF71A
S3150000228403F9616A19B1236B1968C1F10501A068E4
S3150000229400F092FEFEF720F9DFE7FEF7F5F8A068F6
S315000022A400F0E6FD0646FEF717F999E704F110007B
S315000022B400F0FAFC0028B4D04FF080520C4B5A6060
S315000022C4BFF34F8FBFF36F8FABE700F0D5FEA0606F
S315000022D4A4E740F286610A4B074A0848FFF778FAF2
S315000022E440F28261074B044A0448FFF771FA00BFC3
S315000022F400ED00E074360000043C000034350000B4
S31500002304C83600004837000070B500B3D9B10024C0
S31500002314124D23462A4604E001330A2B02F1080231
S315000023240ED0566886420FD0002CF5D155F833608E
S315000023340133002E08BF14460A2B02F10802F0D11D
S315000023440CB1C4E9001070BD05EBC304F9E740F60F
S31500002354C931034B034A0448FFF73AFA480B0020F5
S315000023642C350000F03B00003435000070B50446FF
S315000023740E461546FEF788F894F84430FF2B04BF42
S31500002384002384F8443094F84530FF2B04BF00231F
S3150000239484F84530FEF7A0F8A36B23B12046BDE8C8
S315000023A47040FFF735BC04F124002A46314600F09C
S315000023B449FC2046BDE87040FFF72ABC2DE9F843E6
S315000023C40446264B2648274A274DD0F8009017681E
S315000023D4D3F8008028680E460430FFF7CBFB631C55
S315000023E417D02B6819EB04045C600BD229683846B5
S315000023F40431FFF7A7FB1D4B1A68A24200D91C60E3
S31500002404BDE8F88329684046BDE8F8430431FFF780
S3150000241499BB76B92B6809F1FF325A60B9F1000FFE
S31500002424F0D1296838460431FFF78CFB0F4B1B6843
S31500002434E6E70F4B29685A681C688A602E680134DF
S31500002444286829681C602D68946804300431F46097
S31500002454606091606B61BDE8F88300BF040C0020E6
S31500002464BC0B0020080C0020980C0020A00B0020B8
S31500002474C40B002080B54FF08058124C124E134DF9
S31500002484134FDFF850900EE0FDF7FEFFF368D868AF
S315000024940430FFF76FFB2B68013B2B602368013B7D
S315000024A42360FEF719F82368002BEDD13B68012B56
S315000024B405D9C9F80480BFF34F8FBFF36F8FFEF7BA
S315000024C45FF8F0E7D80B0020DC0B0020C00B0020DF
S315000024D4340C002000ED00E02DE9F84F594B1C6840
S315000024E401341C60002C00F08280DFF87C81D8F86F
S315000024F400309C4273D3544D2B681868002800F0B2
S315000025048D800020DFF864B10646504ADFF860C1CA
S315000025145CE0D9689F68D3F81490B9609F6803F1AA
S31500002524040E4F60D9F80410714504BFD968C9F880
S3150000253404105E61D9F800100139C9F80010D3F807
S315000025442890B9F1000F13D0D3E90771B960DF6998
S3150000255403F1180A4F60D9F80410514504BF196AEB
S31500002564C9F804109E62D9F800100139C9F80010A0
S31500002574D96ADBF80090494588BFCBF8001001EB17
S31500002584810102EB810149689960D1F80890C3F88A
S315000025940C90C9F804E0C1F808E0D96ADCF80090A8
S315000025A401EB810E02EB8E01596152F82E10D5F81B
S315000025B400A0013142F82E10D3F82CE0D9F82C10E3
S315000025C4DAF800308E4588BF01203BB32B68DB6800
S315000025D4DB6859688C429CD2C8F8001000E00020E1
S315000025E41B4B1B68002B18BF0120BDE8F88F164B48
S315000025F41A681268FAB9174A1868116819601649F0
S3150000260410600A6801320A601A6812685AB94FF0F3
S31500002614FF33DFF85480C8F8003068E74FF0FF3323
S31500002624C8F80030DCE71B68DFF83C80DB681B6811
S31500002634C8F800305BE741F25F21084B084A0948B5
S31500002644FFF7C6F8BC0B0020080C0020340C002051
S31500002654AC0B0020040C0020A80B0020E43700007B
S315000026644C3D0000B8370000A00B0020B80B00203A
S31500002674980C00202DE9F04782B00C9CDDE90A6A2B
S31500002684BAF1000F00F0D380002C00F0C280984607
S31500002694682301931546019A9A4240F0B38089460D
S315000026A405F18045013D0746002120460AEB8505D4
S315000026B4019B25F0070500F0C3FEC4F830A0B9F16C
S315000026C4000F0FD009F1FF3C09F10F0304F1330E9B
S315000026D41CF9011F0EF8011F09B19C45F8D100230E
S315000026E484F84330042E00F29B8004F10409484622
S315000026F4E6626664FFF722FAC6F1050604F11800DD
S31500002704FFF71CFA43463A462846216BA661246124
S315000027146462FDF79FFE2060FDF7B6FE474A484D0A
S315000027241368013313602B68002B3FD0454FE36ACF
S315000027343A68002A34D0444E444945480A6801326E
S315000027440A6002689A4238BF036003EB830306EB10
S3150000275483035B68A3609A68E260C2F80490C3F8D6
S315000027640890E36A03EB830306EB830262619B0032
S31500002774F2580132F250FDF7AFFE3B6863B12A68A6
S31500002784E36AD26A9A4207D24FF08052314B5A60BA
S31500002794BFF34F8FBFF36F8F204602B0BDE8F087BB
S315000027A42A68D26A934228BF2C60C4E72C60136857
S315000027B4012B03D0E36A244E224FBDE7224E37464F
S315000027C406F1640838461437FFF7ACF9B845F9D171
S315000027D4DFF8B880204F4046FFF7A4F93846FFF7E4
S315000027E4A1F91E48FFF79EF91D48FFF79BF91D48FE
S315000027F4FFF798F91C4BC3F800801C4B1F60E36A73
S31500002804104F99E740F2FA41194B1A4A1A48FEF753
S31500002814DFFF40F2F241194B164A1748FEF7D8FF7C
S3150000282440F26471164B174A1348FEF7D1FF40F283
S31500002834F141154B0F4A1048FEF7CAFFC00B0020A2
S31500002844980C0020B40B0020340C0020A40B0020AC
S31500002854B80B002000ED00E00C0C0020F00B00206B
S31500002864DC0B0020C40B0020080C0020040C002004
S3150000287498380000A83D0000B83700007C380000F6
S31500002884B4380000903D00005C380000200C0020A5
S3150000289430B500248DB01B4B07AA06A905A80893DA
S315000028A4CDE905448DF82440FDF714FDDDE9051254
S315000028B42346CDE901211448079A009408A9FFF795
S315000028C4D9FE124B186018B9114B1B680DB030BDF8
S315000028D400F080FD012808D00130F5D140F6A96149
S315000028E40C4B0D4A0D48FEF773FF80F310884FF02A
S315000028F4FF350B490B4A0C4B0D6010601C60FDF74D
S315000029046DFEE1E749444C45792400009C0B002008
S31500002914BC3D0000C8380000703D0000B837000018
S31500002924A00B0020B40B0020BC0B0020024A136845
S3150000293401331360704700BF980B00202DE9F04760
S31500002944604CFDF7A1FD2368002B00F0B3802368DB
S31500002954013B23602068002840F09E805A4B1B6888
S31500002964002B00F09980594D2B68002B00F09F80B6
S315000029744FF0010C564E574ADFF86CA1DFF8788108
S31500002984EB68DB68D3F828E0D3E90771B960DF693F
S3150000299403F118094F60DEF80410494504BF196AAB
S315000029A4CEF804109862DEF800100139CEF8001053
S315000029B4D3F814E0D3E90271B9609F6803F10409FE
S315000029C44F60DEF80410494504BFD968CEF80410F8
S315000029D45861DEF800100139CEF80010D96AD6F82D
S315000029E400E0714588BF316001EB810102EB810192
S315000029F449689960D1F808E0C3F80CE0CEF8049071
S31500002A04C1F80890D96A01EB810E02EB8E01596177
S31500002A1452F82E10013142F82E10DAF800E0D96A85
S31500002A24DEF82C3099422B6888BFC8F800C0002B0A
S31500002A34A6D1294B1A681268002A33D01A68274B84
S31500002A44D26812681A60264E356895B1012706E0E9
S31500002A54FFF742FD08B1C8F80070013D08D02368AD
S31500002A64002BF5D03368013D03F101033360F6D141
S31500002A743560D8F800307BB14FF08052194B1A49B3
S31500002A8409685A60BFF34F8FBFF36F8F0124FDF7B8
S31500002A9423FD2046BDE8F0870024FDF71DFD2046F2
S31500002AA4BDE8F0874FF0FF320C4B1A60CBE7DFF836
S31500002AB44880C8E740F68B710C4B0D4A0D48FEF76B
S31500002AC487FE00BF980B0020C00B0020F00B0020EF
S31500002AD4B80B0020340C0020080C0020A00B0020AA
S31500002AE4B00B002000ED00E0980C0020DC3800005C
S31500002AF4603D0000B8370000AC0B002008B560B19B
S31500002B040E4B1A6801321A601B68012B0ED1002184
S31500002B14FFF754FCFFF712FF38B94FF08052084B09
S31500002B245A60BFF34F8FBFF36F8F08BD40F68E1107
S31500002B34044B054A0548FEF74BFE00BF980B0020E0
S31500002B4400ED00E024390000843D0000B8370000A1
S31500002B54014B1868704700BFBC0B0020054B1B686F
S31500002B640BB9FFF7B9BC044A00201368013313609C
S31500002B74704700BF980B0020B00B002038B51A4BE5
S31500002B841B681BB10122194B1A6038BD174A184C31
S31500002B9413602368174803EB830250F82250990008
S31500002BA400EB82023DB9C3B152F8141C013B09B9CA
S31500002BB4143AF8E79900CA1800EB820108464A68F5
S31500002BC40830526882424A6004BFCA684A60D268C2
S31500002BD409490A6023600B6838BD41F2FA31074B94
S31500002BE4074A0848FEF7F4FD980B0020AC0B0020BA
S31500002BF4B80B0020340C0020980C0020403900004B
S31500002C04383D0000B837000010B558B10C46094BE2
S31500002C1419681831FEF796FF2046BDE810400121D9
S31500002C24FFF7CCBB4FF4A451034B044A0448FEF708
S31500002C34CFFD00BF980C002050390000203D000055
S31500002C44B8370000F8B50346F8B108461146124CE9
S31500002C545A682568D4F800C0EA612668256827689A
S31500002C6405F1180495681836CCF820506E60946007
S31500002C74BB621A68002902F101021A6018BF4FF0FC
S31500002C84FF30BDE8F840FFF799BB41F2BE41034B64
S31500002C94034A0448FEF79CFD980C002050390000B6
S31500002CA4003D0000B837000038B5C368DB68002B68
S31500002CB45BD0D3E907019A6A8160DC6903F11800E5
S31500002CC44C6051682C4C814208BF196A246808BFBD
S31500002CD4516000219962116801391160ACB1274A2B
S31500002CE45468DC61A168196248601168A06001310A
S31500002CF49A6211602249DA6A0B68DB6A9A4232D90F
S31500002D040123204A1846136038BD5A69D3E90201E3
S31500002D1481609C68181D4C6051681B4C814208BF39
S31500002D24D968256808BF51600021596111680139C5
S31500002D341160DA6A1549AA4288BF226002EB820250
S31500002D4401EB820252689A609468DC60606090606D
S31500002D54DA6A02EB820201EB82005861920088581B
S31500002D6401308850C6E7002038BD41F2F541084BD2
S31500002D74084A0948FEF72CFD980B0020F00B0020AA
S31500002D84980C0020AC0B0020B80B0020340C00205B
S31500002D945C390000E43C0000B8370000034A044BE9
S31500002DA412681B68C0E90023704700BFA80B002007
S31500002DB4BC0B0020F8B550B30D4679B30446FDF7B5
S31500002DC463FB2B68194A581C11681BD0D4E90060B0
S31500002DD4DFF86CC0DCF80070BE4208D0884206D822
S31500002DE4002301242B60FDF777FB2046F8BD0F1A5C
S31500002DF4BB42F5D95B1ADCF80010126803442B6059
S31500002E04C4E900120024FDF767FB2046F8BD41F231
S31500002E14A551074B074A0848FEF7DAFC41F2A651CA
S31500002E24064B044A0448FEF7D3FC00BFBC0B002043
S31500002E346C390000CC3C0000B8370000783900003B
S31500002E44A80B00200122014B1A607047AC0B00202E
S31500002E54054B1B6833B1054B1868B0FA80F040097E
S31500002E644000704701207047B40B0020980B0020E7
S31500002E74F8B50446C8B1224DC36A2A68D26A934299
S31500002E8414D28269002A04DB2A68D26AC2F10502D6
S31500002E9482611C4E626903EB830306EB83039A4249
S31500002EA40CD02B68DB6AE3620120F8BD2B68406C0A
S31500002EB4DB6A98422CBF00200120F8BD271D384646
S31500002EC4FEF758FE104A2B681168DB6A8B42E362F0
S31500002ED488BF136003EB830306EB83035B68A3607D
S31500002EE49A68E26057609F60E36A03EB830306EB2C
S31500002EF4830262619B00F2580132F250D4E700BFAC
S31500002F04980C0020340C0020B80B002088B138B58A
S31500002F14224B04461B68834232D19B6C002B36D06D
S31500002F24C16A426C013B9142836400D01BB100200C
S31500002F3438BD00207047051D2846FEF71BFE636C4E
S31500002F44174AC3F10500A06101201168E3628B42B0
S31500002F5488BF1360134A03EB830302EB83035B68A6
S31500002F64A3609968E1604D609D60E36A03EB8303A7
S31500002F7402EB830161619B00D1580144D15038BDF5
S31500002F8441F62821084B094A0948FEF721FC41F677
S31500002F942921084B054A0648FEF71AFC980C00201E
S31500002FA4B80B0020340C002088390000B43C000023
S31500002FB4B8370000A039000070B170B5826C0446C1
S31500002FC4002A3CD0406CE36A814238BF01468B42FA
S31500002FD401D0012A01D070BD7047204A1268A2426E
S31500002FE434D0A2691E4D002A03EB83036269E162B1
S31500002FF405EB8303A4BFC1F10501A1619A42EAD19D
S31500003004261D3046FEF7B6FD164AE36A11688B4262
S3150000301488BF136003EB830305EB83035B68A3603C
S315000030249A68E26056609E60E36A03EB830305EBED
S31500003034830262619B00EA580132EA5070BD41F690
S315000030448621094B094A0A48FEF7C2FB41F6A1212B
S31500003054084B064A0648FEF7BBFB00BF980C002047
S31500003064340C0020B80B0020A0390000903C00006E
S31500003074B8370000B8390000034B186810B1836CE8
S3150000308401338364704700BF980C0020F0B5124CDE
S3150000309483B0FDF7F9F9256825B103B0BDE8F04022
S315000030A4FDF71ABA0D4E0E4F3046FEF73BFD384675
S315000030B4FEF738FD0B490C4B00950A201F600E6085
S315000030C40A4B0C210A4AFEF747FE20600028E4D08A
S315000030D40849FFF719F9E0E7640D0020840D002084
S315000030E4700D00206C0D0020680D00209C0C002043
S315000030F4E40C0020D03900002DE9F047DFF8849075
S315000031040546D9F800300F46DB68DC6804F104088C
S315000031144046FEF72FFD94F824305A070ED423F0C8
S31500003124010384F824302046236ABDE8F047184793
S3150000313493421BD82046236A98473546A3697A1BCF
S31500003144EE182CBF01210021B74266602461EFD23C
S31500003154AF4201D20029EDD0D9F800004146FEF76E
S31500003164F1FC2046236ABDE8F0471847044B414664
S315000031741868FEF7E7FC2046236ABDE8F0471847BF
S31500003184680D00206C0D00202DE9F04F0027894DB5
S31500003194894E8A4CDFF8388285B02B68D3F800B0A4
S315000031A4BBF1000F00F0B180DB68D3F800B0FFF785
S315000031B4BDFBFFF7CDFC33688246834243D8834583
S315000031C4306040F2BE8000222068ABEB0A01FFF7B4
S315000031D4CDF8FFF7B3FB38B94FF08053784A536004
S315000031E4BFF34F8FBFF36F8FCDE9017703970022AB
S315000031F4206801A9FEF7F8FE0028CED0019B002B1B
S31500003204F5DBDDF80CA0DAF814301BB10AF1040082
S31500003214FEF7B0FCFFF79CFC33688346984226D33E
S31500003224019BC6F800B0013B082BE0D8DFE803F0A9
S3150000323429294D544D29294D5400DB684FF0FF319F
S315000032441868FFF759FF2B681A68002AF5D1D8F8D1
S315000032540020C6F800A02A60C8F80030FFF76EFB0D
S31500003264C2E7DB684FF0FF311868FFF745FF2B68AC
S315000032741A68002AF5D1D8F80020C8F800302A6068
S31500003284CEE79AF82410029ADAF8183041F00100D1
S315000032948AF82400D0182CBF4FF0010C4FF0000C14
S315000032A45845CAF80400CAF810A03FD8ABEB02028E
S315000032B4934223D84A074BD421F001018AF82410FB
S315000032C45046DAF82030984791E79AF8243023F0EC
S315000032D401038AF824308AE79AF82420029B42F0F4
S315000032E401028AF82420CAF81830002B5AD05B440D
S315000032F45B45CAF80430CAF810A01CD8D8F80000F8
S315000033040AF10401FEF71EFC71E7FFF70FFBFFF756
S315000033141FFC33688246984295D3D8F80030C6F825
S3150000332400A01A68B2FA82F252094DE75A4502D948
S31500003334BCF1000FBED028680AF10401FEF702FCB6
S3150000334455E7FFF7FBFA51465846FFF7D5FE4BE71C
S31500003354029A1A440AE0ABEB020293421BD8DAF84B
S315000033642030504698474A46DAF8183013EB0209DB
S315000033742CBF01200020CB45CAF80490CAF810A03F
S31500003384E9D2934501D20028E9D028680AF104015C
S31500003394FEF7D8FB94E7D8F800000AF10401FEF71B
S315000033A4D1FB8DE74FF48261064B074A0748FEF7C7
S315000033B40FFA00BF6C0D00205C0D0020640D002088
S315000033C400ED00E00C3A0000C03D0000E0390000CA
S315000033D4680D002010B588B0FFF758FE114B1B6826
S315000033E4CBB1002407AA06A905A8CDE90544FCF734
S315000033F47FFF03222346059C00920294069C0A49F9
S315000034040A48079A0194FFF735F9094B186010B179
S31500003414012008B010BD4FF4A371064B064A0748B5
S31500003424FEF7D6F9640D0020343A00008D31000011
S31500003434600D00203C3A0000DC3D0000E03900004D
S3150000344402440346934200D1704703F8011BF9E78F
S315000034540A44431E914200D1704710B511F8014B3E
S31500003464914203F8014FF9D110BD000063616E5F0C
S3150000347474687265616400004932435F74687265FA
S3150000348461640000554152545F546872656164007A
S3150000349475635356434E756D626572203C3D203309
S315000034A4000000002E2E2F72612F6673702F737228
S315000034B4632F726D5F6672656572746F735F706F8A
S315000034C472742F706F72742E6300000028282853BC
S315000034D443425F54797065202A292028283078458C
S315000034E430303045303030554C29202B2030783060
S315000034F4443030554C2920292D3E49435352202629
S3150000350420283078314646554C202929203D3D2037
S31500003514300000007578437269746963616C4E65A6
S315000035247374696E670000007851756575650000EF
S315000035342E2E2F72612F6177732F46726565525452
S315000035444F532F4672656552544F532F536F7572FE
S3150000355463652F71756575652E6300007078517506
S31500003564657565007852657475726E20213D202854
S31500003574202820282042617365547970655F742081
S3150000358429203020292029007078537461746963D6
S3150000359451756575650000007853697A65203D3D6F
S315000035A42073697A656F66282051756575655F7441
S315000035B42029000070784E657751756575650000A1
S315000035C47848616E646C650021282028207076494D
S315000035D474656D546F5175657565203D3D202828C9
S315000035E4766F6964202A2930292029202626202856
S315000035F420707851756575652D3E75784974656DCD
S3150000360453697A6520213D2028205542617365540B
S315000036147970655F742029203055202920290000FF
S31500003624212820282078436F7079506F7369746954
S315000036346F6E203D3D202820282042617365547911
S3150000364470655F742029203220292029202626200F
S315000036542820707851756575652D3E75784C656EB4
S3150000366467746820213D20312029202900000000AC
S315000036742128202820785461736B47657453636846
S315000036846564756C657253746174652829203D3DC3
S31500003694202820282042617365547970655F742060
S315000036A429203020292029202626202820785469FC
S315000036B4636B73546F5761697420213D2030202950
S315000036C420290000707851756575652D3E75784919
S315000036D474656D53697A65203D3D20300000000015
S315000036E42128202820707851756575652D3E7063F4
S315000036F448656164203D3D202828766F6964202A48
S3150000370429302920292026262028207078517565FD
S3150000371475652D3E752E7853656D6170686F72659B
S315000037242E784D75746578486F6C64657220213DFA
S31500003734202828766F6964202A29302920292029FF
S3150000374400000000282070785175657565202900F1
S315000037542128202820282070764275666665722006
S3150000376429203D3D202828766F6964202A2930299E
S315000037742029202626202820282070785175657552
S315000037846520292D3E75784974656D53697A6520DF
S31500003794213D2028205542617365547970655F7414
S315000037A420292030552029202900000078546173EF
S315000037B46B0000002E2E2F72612F6177732F4672D5
S315000037C4656552544F532F4672656552544F532FB5
S315000037D4536F757263652F7461736B732E63000088
S315000037E42820282028202820707844656C61796573
S315000037F4645461736B4C69737420292D3E75784E3D
S31500003804756D6265724F664974656D73203D3D2022
S3150000381428205542617365547970655F74202920A8
S31500003824302029203F2028202820426173655479BE
S3150000383470655F74202920312029203A2028202809
S315000038442042617365547970655F742029203020A5
S315000038542920292029000000707578537461636B50
S3150000386442756666657220213D202828766F696454
S31500003874202A29302900000070785461736B427540
S315000038846666657220213D202828766F6964202AA1
S31500003894293029007853697A65203D3D2073697A79
S315000038A4656F6628205443425F7420290000000097
S315000038B475785072696F72697479203C20283529AD
S315000038C4000000007852657475726E20213D202830
S315000038D4202D3120290000007578536368656475CE
S315000038E46C657253757370656E64656420213D2042
S315000038F430550000707850726576696F757357613C
S315000039046B6554696D65000028207854696D6549B6
S315000039146E6372656D656E74203E203055202900F5
S3150000392475785363686564756C65725375737065F1
S315000039346E646564203D3D20315500007578546FF2
S31500003944705072696F7269747900000070784576F8
S31500003954656E744C697374007078556E626C6F632F
S315000039646B65645443420000707854696D654F7505
S315000039747400000070785469636B73546F576169FF
S31500003984740000007078544342203D3D2070784313
S31500003994757272656E745443420000007078544325
S315000039A4422D3E75784D75746578657348656C640B
S315000039B400000000707854434220213D2070784373
S315000039C4757272656E74544342000000546D7251F0
S315000039D4000000007854696D657200002E2E2F7267
S315000039E4612F6177732F4672656552544F532F4684
S315000039F472656552544F532F536F757263652F74F6
S31500003A04696D6572732E63002820707854696D653C
S31500003A14722D3E7854696D6572506572696F64499A
S31500003A246E5469636B73203E203020290000000029
S31500003A34546D7220537663007852657475726E0005
S31500003A44000000000000000008000000583A0000D2
S31500003A540000000000000104000100000000010451
S31500003A640101000000000110020100000000011025
S31500003A74030100000000010008010000000001002D
S31500003A84000300000004010700040000000401070D
S31500003A9401040000000000006400630065005A0091
S31500003AA4590080018101820183017300740075004D
S31500003AB47600000076506F727445786974437269B3
S31500003AC4746963616C00000076506F7274456E749D
S31500003AD46572437269746963616C000076506F7233
S31500003AE47453564348616E646C65725F430000000C
S31500003AF4020403040404000000010203040506078B
S31500003B04080C10141820304004000000B43B0000D8
S31500003B1408000000343B000002000000243B0000C3
S31500003B24000000680000006800000020000000207B
S31500003B3400000068000000680000006000010C0836
S31500003B440000006800000068000000700001090819
S31500003B540000006800000068000000080001020878
S31500003B6400000068000000687400000000010108FD
S31500003B7400000020000000200000006000010C038B
S31500003B84000000200000002000000070000109036E
S31500003B9400000020000000200000000800000203CE
S31500003BA40000002000000020740000000000010353
S31500003BB400000068000000680001000800000068BA
S31500003BC4000000680001000800000020000000203A
S31500003BD40000000320040020980D002000000003CC
S31500003BE401000200080010002000000076517565EF
S31500003BF47565416464546F526567697374727900BC
S31500003C0478517565756553656D6170686F72655435
S31500003C14616B65007851756575655265636569768E
S31500003C246500000078517565756547656E6572694E
S31500003C346353656E6400000078517565756543725B
S31500003C4465617465436F756E74696E6753656D61FE
S31500003C5470686F7265537461746963007851756531
S31500003C64756547656E65726963437265617465530C
S31500003C7474617469630000007851756575654765FC
S31500003C846E65726963526573657400007654617378
S31500003C946B5072696F72697479446973696E686589
S31500003CA4726974416674657254696D656F757400E2
S31500003CB4785461736B5072696F726974794469736D
S31500003CC4696E686572697400785461736B436865DC
S31500003CD4636B466F7254696D654F7574000000001E
S31500003CE4785461736B52656D6F766546726F6D4578
S31500003CF476656E744C6973740000000076546173C3
S31500003D046B506C6163654F6E4576656E744C697372
S31500003D14745265737472696374656400765461736E
S31500003D246B506C6163654F6E4576656E744C697352
S31500003D3474000000765461736B5377697463684347
S31500003D446F6E746578740000785461736B496E63A2
S31500003D5472656D656E745469636B000078546173A3
S31500003D646B526573756D65416C6C000076546173B6
S31500003D746B53746172745363686564756C65720021
S31500003D84765461736B44656C617900007072764990
S31500003D946E697469616C6973654E65775461736B9A
S31500003DA40000000070727643726561746553746135
S31500003DB47469635461736B0004000000707276507A
S31500003DC4726F636573735265636569766564436F81
S31500003DD46D6D616E647300007854696D657243722B
S31500003DE46561746554696D65725461736B00000096
S31500003DF44275696C7420776974682052656E6573C0
S31500003E04617320416476616E63656420466C6578EF
S31500003E1469626C6520536F667477617265205061C0
S31500003E24636B6167652076657273696F6E20362EE3
S31500003E34322E3000362E322E3000000000000206EC
S30900003E44F8B500BF08
S30900003E48F8B500BF04
S30900003E4CE10000008B
S30900003E50B9000000AF
S3090100A100FFFFFFFF58
S3090100A200FFFDFFFF59
S3090100A280F8F8FFFFE5
S705000019F9E8
